{
  "contractName": "MetaCoin",
  "abi": [
    {
      "inputs": [],
      "payable": false,
      "stateMutability": "nonpayable",
      "type": "constructor"
    },
    {
      "constant": false,
      "inputs": [
        {
          "internalType": "address",
          "name": "candidato",
          "type": "address"
        }
      ],
      "name": "vota",
      "outputs": [
        {
          "internalType": "bool",
          "name": "sufficient",
          "type": "bool"
        }
      ],
      "payable": false,
      "stateMutability": "nonpayable",
      "type": "function"
    },
    {
      "constant": false,
      "inputs": [
        {
          "internalType": "address",
          "name": "candidato",
          "type": "address"
        }
      ],
      "name": "togliVoto",
      "outputs": [
        {
          "internalType": "bool",
          "name": "sufficient",
          "type": "bool"
        }
      ],
      "payable": false,
      "stateMutability": "nonpayable",
      "type": "function"
    },
    {
      "constant": true,
      "inputs": [
        {
          "internalType": "address",
          "name": "candindato",
          "type": "address"
        }
      ],
      "name": "getNumeroVoti",
      "outputs": [
        {
          "internalType": "uint256",
          "name": "",
          "type": "uint256"
        }
      ],
      "payable": false,
      "stateMutability": "view",
      "type": "function"
    }
  ],
  "bytecode": "0x608060405234801561001057600080fd5b506001806000739ad86328e419e0c42a2d9220c51ff94e29faae6373ffffffffffffffffffffffffffffffffffffffff1673ffffffffffffffffffffffffffffffffffffffff16815260200190815260200160002060006101000a81548160ff0219169083151502179055506001806000730b64888c070d306d89002e1e478c93e0fc84e1a273ffffffffffffffffffffffffffffffffffffffff1673ffffffffffffffffffffffffffffffffffffffff16815260200190815260200160002060006101000a81548160ff0219169083151502179055506001806000739ad86328e419e0c42a2d9220c51ff94e29faae6373ffffffffffffffffffffffffffffffffffffffff1673ffffffffffffffffffffffffffffffffffffffff16815260200190815260200160002060006101000a81548160ff021916908315150217905550600080735d05744b8d57c70251db4a87df17d08de64f5dd673ffffffffffffffffffffffffffffffffffffffff1673ffffffffffffffffffffffffffffffffffffffff16815260200190815260200160002050600080736ab74e04bd4e7477ab23d6d96208a9350076e97273ffffffffffffffffffffffffffffffffffffffff1673ffffffffffffffffffffffffffffffffffffffff1681526020019081526020016000205061057e806102076000396000f3fe608060405234801561001057600080fd5b50600436106100415760003560e01c806388e5153914610046578063afaa038c146100a2578063fb2d5986146100fe575b600080fd5b6100886004803603602081101561005c57600080fd5b81019080803573ffffffffffffffffffffffffffffffffffffffff169060200190929190505050610156565b604051808215151515815260200191505060405180910390f35b6100e4600480360360208110156100b857600080fd5b81019080803573ffffffffffffffffffffffffffffffffffffffff1690602001909291905050506102b7565b604051808215151515815260200191505060405180910390f35b6101406004803603602081101561011457600080fd5b81019080803573ffffffffffffffffffffffffffffffffffffffff1690602001909291905050506104fe565b6040518082815260200191505060405180910390f35b6000600160003373ffffffffffffffffffffffffffffffffffffffff1673ffffffffffffffffffffffffffffffffffffffff16815260200190815260200160002060009054906101000a900460ff16156102ad576000808373ffffffffffffffffffffffffffffffffffffffff1673ffffffffffffffffffffffffffffffffffffffff1681526020019081526020016000208290806001815401808255809150509060018203906000526020600020016000909192909190916101000a81548173ffffffffffffffffffffffffffffffffffffffff021916908373ffffffffffffffffffffffffffffffffffffffff160217905550506000600160003373ffffffffffffffffffffffffffffffffffffffff1673ffffffffffffffffffffffffffffffffffffffff16815260200190815260200160002060006101000a81548160ff021916908315150217905550600190506102b2565b600090505b919050565b6000806000808473ffffffffffffffffffffffffffffffffffffffff1673ffffffffffffffffffffffffffffffffffffffff16815260200190815260200160002080549050905060001515600160003373ffffffffffffffffffffffffffffffffffffffff1673ffffffffffffffffffffffffffffffffffffffff16815260200190815260200160002060009054906101000a900460ff16151514156104f35760008090505b818110156104f1573373ffffffffffffffffffffffffffffffffffffffff166000808673ffffffffffffffffffffffffffffffffffffffff1673ffffffffffffffffffffffffffffffffffffffff16815260200190815260200160002082815481106103c557fe5b9060005260206000200160009054906101000a900473ffffffffffffffffffffffffffffffffffffffff1673ffffffffffffffffffffffffffffffffffffffff1614156104e4576000808573ffffffffffffffffffffffffffffffffffffffff1673ffffffffffffffffffffffffffffffffffffffff168152602001908152602001600020818154811061045557fe5b9060005260206000200160006101000a81549073ffffffffffffffffffffffffffffffffffffffff021916905560018060003373ffffffffffffffffffffffffffffffffffffffff1673ffffffffffffffffffffffffffffffffffffffff16815260200190815260200160002060006101000a81548160ff0219169083151502179055506001925050506104f9565b808060010191505061035d565b505b60009150505b919050565b60008060008373ffffffffffffffffffffffffffffffffffffffff1673ffffffffffffffffffffffffffffffffffffffff16815260200190815260200160002080549050905091905056fea265627a7a72315820172c2623d49c539d13a0af3d8a0a08004215f31885f602636a535613005955d064736f6c63430005100032",
  "source": "// SPDX-License-Identifier: MIT\npragma solidity >=0.4.25 <0.7.0;\n\nimport \"./ConvertLib.sol\";\n\n// This is just a simple example of a coin-like contract.\n// It is not standards compatible and cannot be expected to talk to other\n// coin/token contracts. If you want to create a standards-compliant\n// token, see: https://github.com/ConsenSys/Tokens. Cheers!\n\ncontract MetaCoin {\n\tmapping (address => address []) numerodiVoti;\n\n\tmapping (address => bool) votoIndividuale;\n\t\n\t//address [] listaCandidati;\n\t//event Transfer(address indexed _from, address indexed _to, uint256 _value);\n\n\tconstructor() public {\n\n\t\t//insieme dei votanti\n\t\tvotoIndividuale[0x9aD86328e419E0c42A2D9220C51ff94E29faae63]=true;\n\t\tvotoIndividuale[0x0B64888c070d306d89002e1e478c93e0fC84e1a2]=true;\n\t\tvotoIndividuale[0x9aD86328e419E0c42A2D9220C51ff94E29faae63]=true;\n\n\t\t//insieme dei candidati\n\n\n\t\tnumerodiVoti[0x5D05744b8D57c70251DB4a87df17D08de64f5Dd6];\n\t\tnumerodiVoti[0x6ab74e04bd4e7477Ab23D6d96208A9350076e972];\n\n\t}\n\n\tfunction vota(address candidato) public returns(bool sufficient) {\n\t\tif (votoIndividuale[msg.sender]){\n\t\t\tnumerodiVoti[candidato].push(candidato);\n\t\t\tvotoIndividuale[msg.sender]=false;\n\t\t\treturn true;\n\t\t}\n\t\treturn false;\n\t}\n\n\n\tfunction togliVoto(address candidato) public returns(bool sufficient) {\n\t\tuint256 len=numerodiVoti[candidato].length;\n\t\tif (votoIndividuale[msg.sender]== false ){\n\t\t\tfor (uint256 i=0;i<len;i++ ){\n\t\t\t\tif (numerodiVoti[candidato][i] == msg.sender ){\n\t\t\t\t\tdelete numerodiVoti[candidato][i];\n\t\t\t\t\tvotoIndividuale[msg.sender]=true;\n\t\t\t\t\treturn true;\n\t\t\t\t}\n\n\n\n\n\t\t\t}\n\t\t\t\n\n\t\t}\n\t\treturn false;\n\t}\n\n\n\n\tfunction getNumeroVoti(address candindato) public view returns(uint256){\n\n\t\treturn numerodiVoti[candindato].length;\n\t}\n\n\n\n/*    \n\tfunction getTuttiVoti() public view returns (string [] memory) {\n\t\tstring [] memory  ret;\n\t\tstring memory stri ;\n\t\tfor(int i=0; i<listaCandidati.length;i++){\n\t\t\taddress indirizzo = listaCandidati[i];\n\t\t\tuint numVoti = numerodiVoti[indirizzo];\n\t\t\tstri =\" VOTI:\"+string(numVoti)+\"...\" + string(indirizzo);\n\t\t\tret.append(stri);\n\t\t}\n\t\t\n\t\treturn numerodiVoti;\n\t}\n*/\n\n/*\n\tfunction getNumeroVoti(address candindato) public view returns(uint){\n\t\treturn numerodiVoti[candindato];\n\t}\n\n*/\n/*\n\tfunction sendCoin(address receiver, uint amount) public returns(bool sufficient) {\n\t\tif (balances[msg.sender] < amount) return false;\n\t\tbalances[msg.sender] -= amount;\n\t\tbalances[receiver] += amount;\n\t\t//emit Transfer(msg.sender, receiver, amount);\n\t\treturn true;\n\t}\n\n\tfunction getBalanceInEth(address addr) public view returns(uint){\n\t\treturn ConvertLib.convert(getBalance(addr),2);\n\t}\n\n\tfunction getBalance(address addr) public view returns(uint) {\n\t\treturn balances[addr];\n\t}\n\n\t*/\n}\n",
  "sourcePath": "/home/naddi/Scrivania/blockchain/Progetto-SCRS/esercizio sistema di voto/votingSistemError/contracts/MetaCoin.sol",
  "compiler": {
    "name": "solc",
    "version": "0.5.16+commit.9c3226ce.Emscripten.clang"
  },
  "schemaVersion": "3.3.4",
  "updatedAt": "2021-03-31T11:21:58.181Z",
  "devdoc": {
    "methods": {}
  },
  "userdoc": {
    "methods": {}
  }
}