{
  "contractName": "MetaVote2",
  "abi": [
    {
      "inputs": [],
      "payable": false,
      "stateMutability": "nonpayable",
      "type": "constructor"
    },
    {
      "constant": false,
      "inputs": [
        {
          "internalType": "address",
          "name": "candidato",
          "type": "address"
        }
      ],
      "name": "vota",
      "outputs": [
        {
          "internalType": "bool",
          "name": "sufficient",
          "type": "bool"
        }
      ],
      "payable": false,
      "stateMutability": "nonpayable",
      "type": "function"
    },
    {
      "constant": false,
      "inputs": [
        {
          "internalType": "address",
          "name": "candidato",
          "type": "address"
        }
      ],
      "name": "togliVoto",
      "outputs": [
        {
          "internalType": "bool",
          "name": "sufficient",
          "type": "bool"
        }
      ],
      "payable": false,
      "stateMutability": "nonpayable",
      "type": "function"
    },
    {
      "constant": true,
      "inputs": [
        {
          "internalType": "address",
          "name": "candindato",
          "type": "address"
        }
      ],
      "name": "getNumeroVoti",
      "outputs": [
        {
          "internalType": "uint256",
          "name": "",
          "type": "uint256"
        }
      ],
      "payable": false,
      "stateMutability": "view",
      "type": "function"
    }
  ],
  "bytecode": "0x608060405234801561001057600080fd5b50600180600073dc42098bb91898ec2f419857c916cc78c23301da73ffffffffffffffffffffffffffffffffffffffff1673ffffffffffffffffffffffffffffffffffffffff16815260200190815260200160002060006101000a81548160ff0219169083151502179055506001806000730a578acd9291a13440ec02f0dd0c67673003a9ac73ffffffffffffffffffffffffffffffffffffffff1673ffffffffffffffffffffffffffffffffffffffff16815260200190815260200160002060006101000a81548160ff021916908315150217905550600180600073c4ca1e4bcceb3baaea373f1a2ee5ec2939c75ef273ffffffffffffffffffffffffffffffffffffffff1673ffffffffffffffffffffffffffffffffffffffff16815260200190815260200160002060006101000a81548160ff02191690831515021790555060008073ce45d2f5bb68790cf811deef2b62d45b45e3fad473ffffffffffffffffffffffffffffffffffffffff1673ffffffffffffffffffffffffffffffffffffffff1681526020019081526020016000205060008073e3fef91d6daa4fd73cee4a60132a5c25d8ed056d73ffffffffffffffffffffffffffffffffffffffff1673ffffffffffffffffffffffffffffffffffffffff1681526020019081526020016000205061070d806102076000396000f3fe608060405234801561001057600080fd5b50600436106100415760003560e01c806388e5153914610046578063afaa038c146100a2578063fb2d5986146100fe575b600080fd5b6100886004803603602081101561005c57600080fd5b81019080803573ffffffffffffffffffffffffffffffffffffffff169060200190929190505050610156565b604051808215151515815260200191505060405180910390f35b6100e4600480360360208110156100b857600080fd5b81019080803573ffffffffffffffffffffffffffffffffffffffff1690602001909291905050506102b7565b604051808215151515815260200191505060405180910390f35b6101406004803603602081101561011457600080fd5b81019080803573ffffffffffffffffffffffffffffffffffffffff16906020019092919050505061063c565b6040518082815260200191505060405180910390f35b6000600160003373ffffffffffffffffffffffffffffffffffffffff1673ffffffffffffffffffffffffffffffffffffffff16815260200190815260200160002060009054906101000a900460ff16156102ad576000808373ffffffffffffffffffffffffffffffffffffffff1673ffffffffffffffffffffffffffffffffffffffff1681526020019081526020016000203390806001815401808255809150509060018203906000526020600020016000909192909190916101000a81548173ffffffffffffffffffffffffffffffffffffffff021916908373ffffffffffffffffffffffffffffffffffffffff160217905550506000600160003373ffffffffffffffffffffffffffffffffffffffff1673ffffffffffffffffffffffffffffffffffffffff16815260200190815260200160002060006101000a81548160ff021916908315150217905550600190506102b2565b600090505b919050565b6000806000808473ffffffffffffffffffffffffffffffffffffffff1673ffffffffffffffffffffffffffffffffffffffff16815260200190815260200160002080549050905060001515600160003373ffffffffffffffffffffffffffffffffffffffff1673ffffffffffffffffffffffffffffffffffffffff16815260200190815260200160002060009054906101000a900460ff16151514156106315760008090505b8181101561062f573373ffffffffffffffffffffffffffffffffffffffff166000808673ffffffffffffffffffffffffffffffffffffffff1673ffffffffffffffffffffffffffffffffffffffff16815260200190815260200160002082815481106103c557fe5b9060005260206000200160009054906101000a900473ffffffffffffffffffffffffffffffffffffffff1673ffffffffffffffffffffffffffffffffffffffff161415610622575b60016000808673ffffffffffffffffffffffffffffffffffffffff1673ffffffffffffffffffffffffffffffffffffffff168152602001908152602001600020805490500381101561056e576000808573ffffffffffffffffffffffffffffffffffffffff1673ffffffffffffffffffffffffffffffffffffffff16815260200190815260200160002060018201815481106104a557fe5b9060005260206000200160009054906101000a900473ffffffffffffffffffffffffffffffffffffffff166000808673ffffffffffffffffffffffffffffffffffffffff1673ffffffffffffffffffffffffffffffffffffffff168152602001908152602001600020828154811061051957fe5b9060005260206000200160006101000a81548173ffffffffffffffffffffffffffffffffffffffff021916908373ffffffffffffffffffffffffffffffffffffffff160217905550808060010191505061040d565b6000808573ffffffffffffffffffffffffffffffffffffffff1673ffffffffffffffffffffffffffffffffffffffff1681526020019081526020016000208054809190600190036105bf9190610687565b5060018060003373ffffffffffffffffffffffffffffffffffffffff1673ffffffffffffffffffffffffffffffffffffffff16815260200190815260200160002060006101000a81548160ff021916908315150217905550600192505050610637565b808060010191505061035d565b505b60009150505b919050565b60008060008373ffffffffffffffffffffffffffffffffffffffff1673ffffffffffffffffffffffffffffffffffffffff168152602001908152602001600020805490509050919050565b8154818355818111156106ae578183600052602060002091820191016106ad91906106b3565b5b505050565b6106d591905b808211156106d15760008160009055506001016106b9565b5090565b9056fea265627a7a723158208465402ef33ab0ee4bd5653260811b9796f0ef64dc298eac15bd9b4e5d67a91264736f6c63430005100032",
  "source": "// SPDX-License-Identifier: MIT\npragma solidity >=0.4.25 <0.7.0;\n\nimport \"./ConvertLib.sol\";\n\n// This is just a simple example of a coin-like contract.\n// It is not standards compatible and cannot be expected to talk to other\n// coin/token contracts. If you want to create a standards-compliant\n// token, see: https://github.com/ConsenSys/Tokens. Cheers!\n\ncontract MetaVote2 {\n\tmapping (address => address []) numerodiVoti;\n\n\tmapping (address => bool) votoIndividuale;\n\t\n\t//address [] listaCandidati;\n\t//event Transfer(address indexed _from, address indexed _to, uint256 _value);\n\n\tconstructor() public {\n\n\t\t//insieme dei votanti\n\t\tvotoIndividuale[0xDC42098bB91898eC2f419857C916cC78C23301dA]=true;\n\t\tvotoIndividuale[0x0a578aCd9291A13440ec02F0dD0C67673003A9AC]=true;\n\t\tvotoIndividuale[0xC4CA1e4BCceb3BAaea373F1a2EE5eC2939c75EF2]=true;\n\n\t\t\n\t\t//insieme dei candidati\n\t\tnumerodiVoti[0xCe45D2F5Bb68790cf811Deef2b62D45b45E3FaD4];\n\t\tnumerodiVoti[0xe3FEf91d6daA4fd73ceE4a60132a5C25d8ED056d];\n\n\t}\n\n\tfunction vota(address candidato) public returns(bool sufficient) {\n\t\tif (votoIndividuale[msg.sender]){\n\t\t\tnumerodiVoti[candidato].push(msg.sender);\n\t\t\tvotoIndividuale[msg.sender]=false;\n\t\t\treturn true;\n\t\t}\n\t\treturn false;\n\t}\n\n\n\tfunction togliVoto(address candidato) public returns(bool sufficient) {\n\t\tuint256 len=numerodiVoti[candidato].length;\n\t\tif ( votoIndividuale[msg.sender]== false ){\n\t\t\tfor (uint256 i=0;i<len;i++ ){\n\t\t\t\tif (numerodiVoti[candidato][i] == msg.sender ){\n\t\t\t\t\twhile (i<numerodiVoti[candidato].length-1) {\n\t\t\t\t\t\tnumerodiVoti[candidato][i] = numerodiVoti[candidato][i+1];\n\t\t\t\t\t\ti++;\n\t\t\t\t\t\t}\n\t\t\t\t\tnumerodiVoti[candidato].length--;\n\t\t\t\t\t//delete numerodiVoti[candidato][i];\n\t\t\t\t\tvotoIndividuale[msg.sender]=true;\n\t\t\t\t\treturn true;\n\t\t\t\t}\n\t\t\t}\n\t\t}\n\t\treturn false;\n\t}\n\n\n\n\tfunction getNumeroVoti(address candindato) public view returns(uint256 ){\n\t\treturn numerodiVoti[candindato].length;\n\t}\n\n\n\n/*    \n\tfunction getTuttiVoti() public view returns (string [] memory) {\n\t\tstring [] memory  ret;\n\t\tstring memory stri ;\n\t\tfor(int i=0; i<listaCandidati.length;i++){\n\t\t\taddress indirizzo = listaCandidati[i];\n\t\t\tuint numVoti = numerodiVoti[indirizzo];\n\t\t\tstri =\" VOTI:\"+string(numVoti)+\"...\" + string(indirizzo);\n\t\t\tret.append(stri);\n\t\t}\n\t\t\n\t\treturn numerodiVoti;\n\t}\n*/\n\n/*\n\tfunction getNumeroVoti(address candindato) public view returns(uint){\n\t\treturn numerodiVoti[candindato];\n\t}\n\n*/\n/*\n\tfunction sendCoin(address receiver, uint amount) public returns(bool sufficient) {\n\t\tif (balances[msg.sender] < amount) return false;\n\t\tbalances[msg.sender] -= amount;\n\t\tbalances[receiver] += amount;\n\t\t//emit Transfer(msg.sender, receiver, amount);\n\t\treturn true;\n\t}\n\n\tfunction getBalanceInEth(address addr) public view returns(uint){\n\t\treturn ConvertLib.convert(getBalance(addr),2);\n\t}\n\n\tfunction getBalance(address addr) public view returns(uint) {\n\t\treturn balances[addr];\n\t}\n\n\t*/\n}\n",
  "sourcePath": "/home/naddi/Scrivania/blockchain/Progetto-SCRS/esercizio sistema di voto/votingSistemError/contracts/MetaVote2.sol",
  "compiler": {
    "name": "solc",
    "version": "0.5.16+commit.9c3226ce.Emscripten.clang"
  },
  "schemaVersion": "3.3.4",
  "updatedAt": "2021-03-31T15:18:59.102Z",
  "networkType": "ethereum",
  "devdoc": {
    "methods": {}
  },
  "userdoc": {
    "methods": {}
  }
}