{
  "contractName": "MetaVote1",
  "abi": [
    {
      "inputs": [],
      "payable": false,
      "stateMutability": "nonpayable",
      "type": "constructor"
    },
    {
      "constant": false,
      "inputs": [
        {
          "internalType": "address",
          "name": "candidato",
          "type": "address"
        }
      ],
      "name": "vota",
      "outputs": [
        {
          "internalType": "bool",
          "name": "sufficient",
          "type": "bool"
        }
      ],
      "payable": false,
      "stateMutability": "nonpayable",
      "type": "function"
    },
    {
      "constant": true,
      "inputs": [
        {
          "internalType": "address",
          "name": "candindato",
          "type": "address"
        }
      ],
      "name": "getNumeroVoti",
      "outputs": [
        {
          "internalType": "uint256",
          "name": "",
          "type": "uint256"
        }
      ],
      "payable": false,
      "stateMutability": "view",
      "type": "function"
    }
  ],
  "bytecode": "0x608060405234801561001057600080fd5b50600180600073dc42098bb91898ec2f419857c916cc78c23301da73ffffffffffffffffffffffffffffffffffffffff1673ffffffffffffffffffffffffffffffffffffffff16815260200190815260200160002060006101000a81548160ff0219169083151502179055506001806000730a578acd9291a13440ec02f0dd0c67673003a9ac73ffffffffffffffffffffffffffffffffffffffff1673ffffffffffffffffffffffffffffffffffffffff16815260200190815260200160002060006101000a81548160ff021916908315150217905550600180600073c4ca1e4bcceb3baaea373f1a2ee5ec2939c75ef273ffffffffffffffffffffffffffffffffffffffff1673ffffffffffffffffffffffffffffffffffffffff16815260200190815260200160002060006101000a81548160ff0219169083151502179055506000806000739317cf52ed55e11d18c7e2d2dd375be87b24168573ffffffffffffffffffffffffffffffffffffffff1673ffffffffffffffffffffffffffffffffffffffff16815260200190815260200160002081905550600080600073e3fef91d6daa4fd73cee4a60132a5c25d8ed056d73ffffffffffffffffffffffffffffffffffffffff1673ffffffffffffffffffffffffffffffffffffffff16815260200190815260200160002081905550610278806102116000396000f3fe608060405234801561001057600080fd5b50600436106100365760003560e01c806388e515391461003b578063fb2d598614610097575b600080fd5b61007d6004803603602081101561005157600080fd5b81019080803573ffffffffffffffffffffffffffffffffffffffff1690602001909291905050506100ef565b604051808215151515815260200191505060405180910390f35b6100d9600480360360208110156100ad57600080fd5b81019080803573ffffffffffffffffffffffffffffffffffffffff1690602001909291905050506101fb565b6040518082815260200191505060405180910390f35b6000600160003373ffffffffffffffffffffffffffffffffffffffff1673ffffffffffffffffffffffffffffffffffffffff16815260200190815260200160002060009054906101000a900460ff16156101f15760016000808473ffffffffffffffffffffffffffffffffffffffff1673ffffffffffffffffffffffffffffffffffffffff168152602001908152602001600020600082825401925050819055506000600160003373ffffffffffffffffffffffffffffffffffffffff1673ffffffffffffffffffffffffffffffffffffffff16815260200190815260200160002060006101000a81548160ff021916908315150217905550600190506101f6565b600090505b919050565b60008060008373ffffffffffffffffffffffffffffffffffffffff1673ffffffffffffffffffffffffffffffffffffffff16815260200190815260200160002054905091905056fea265627a7a72315820f9ece9a7738c08939cf1c0de2a588de50f8e56ecc20d3cc2bf8de822ac44d89c64736f6c63430005100032",
  "source": "// SPDX-License-Identifier: MIT\npragma solidity >=0.4.25 <0.7.0;\n\nimport \"./ConvertLib.sol\";\n\n// This is just a simple example of a coin-like contract.\n// It is not standards compatible and cannot be expected to talk to other\n// coin/token contracts. If you want to create a standards-compliant\n// token, see: https://github.com/ConsenSys/Tokens. Cheers!\n\ncontract MetaVote1 {\n\tmapping (address => uint) numerodiVoti;\n\tmapping (address => bool) votoIndividuale;\n\t\n\taddress [] listaCandidati;\n\t//event Transfer(address indexed _from, address indexed _to, uint256 _value);\n\n\tconstructor() public {\n\n\t\t//insieme dei votanti\n\t\tvotoIndividuale[0xDC42098bB91898eC2f419857C916cC78C23301dA]=true;\n\t\tvotoIndividuale[0x0a578aCd9291A13440ec02F0dD0C67673003A9AC]=true;\n\t\tvotoIndividuale[0xC4CA1e4BCceb3BAaea373F1a2EE5eC2939c75EF2]=true;\n\n\t\t//insieme dei candidati\n\n\n\t\tnumerodiVoti[0x9317cf52eD55E11d18C7e2D2DD375bE87B241685]=0;\n\t\tnumerodiVoti[0xe3FEf91d6daA4fd73ceE4a60132a5C25d8ED056d]=0;\n\n\t}\n\n\tfunction vota(address candidato) public returns(bool sufficient) {\n\t\tif (votoIndividuale[msg.sender]){\n\t\t\tnumerodiVoti[candidato] += 1;\n\t\t\tvotoIndividuale[msg.sender]=false;\n\t\t\treturn true;\n\t\t}\n\t\treturn false;\n\t}\n\n\n/*    \n\tfunction getTuttiVoti() public view returns (string [] memory) {\n\t\tstring [] memory  ret;\n\t\tstring memory stri ;\n\t\tfor(int i=0; i<listaCandidati.length;i++){\n\t\t\taddress indirizzo = listaCandidati[i];\n\t\t\tuint numVoti = numerodiVoti[indirizzo];\n\t\t\tstri =\" VOTI:\"+string(numVoti)+\"...\" + string(indirizzo);\n\t\t\tret.append(stri);\n\t\t}\n\t\t\n\t\treturn numerodiVoti;\n\t}\n*/\n\n\n\tfunction getNumeroVoti(address candindato) public view returns(uint){\n\t\treturn numerodiVoti[candindato];\n\t}\n\n/*\n\tfunction sendCoin(address receiver, uint amount) public returns(bool sufficient) {\n\t\tif (balances[msg.sender] < amount) return false;\n\t\tbalances[msg.sender] -= amount;\n\t\tbalances[receiver] += amount;\n\t\t//emit Transfer(msg.sender, receiver, amount);\n\t\treturn true;\n\t}\n\n\tfunction getBalanceInEth(address addr) public view returns(uint){\n\t\treturn ConvertLib.convert(getBalance(addr),2);\n\t}\n\n\tfunction getBalance(address addr) public view returns(uint) {\n\t\treturn balances[addr];\n\t}\n\n\t*/\n}\n",
  "sourcePath": "/home/naddi/Scrivania/blockchain/Progetto-SCRS/esercizio sistema di voto/votingSistem/contracts/MetaVote1.sol",
  "compiler": {
    "name": "solc",
    "version": "0.5.16+commit.9c3226ce.Emscripten.clang"
  },
  "schemaVersion": "3.3.4",
  "updatedAt": "2021-04-07T09:53:51.864Z",
  "networkType": "ethereum",
  "devdoc": {
    "methods": {}
  },
  "userdoc": {
    "methods": {}
  }
}