{
  "contractName": "MetaCoin",
  "abi": [
    {
      "inputs": [],
      "payable": false,
      "stateMutability": "nonpayable",
      "type": "constructor"
    },
    {
      "constant": false,
      "inputs": [
        {
          "internalType": "address",
          "name": "candidato",
          "type": "address"
        }
      ],
      "name": "vota",
      "outputs": [
        {
          "internalType": "bool",
          "name": "sufficient",
          "type": "bool"
        }
      ],
      "payable": false,
      "stateMutability": "nonpayable",
      "type": "function"
    },
    {
      "constant": true,
      "inputs": [
        {
          "internalType": "address",
          "name": "candindato",
          "type": "address"
        }
      ],
      "name": "getNumeroVoti",
      "outputs": [
        {
          "internalType": "uint256",
          "name": "",
          "type": "uint256"
        }
      ],
      "payable": false,
      "stateMutability": "view",
      "type": "function"
    }
  ],
  "bytecode": "0x608060405234801561001057600080fd5b506001806000739ad86328e419e0c42a2d9220c51ff94e29faae6373ffffffffffffffffffffffffffffffffffffffff1673ffffffffffffffffffffffffffffffffffffffff16815260200190815260200160002060006101000a81548160ff0219169083151502179055506001806000730b64888c070d306d89002e1e478c93e0fc84e1a273ffffffffffffffffffffffffffffffffffffffff1673ffffffffffffffffffffffffffffffffffffffff16815260200190815260200160002060006101000a81548160ff0219169083151502179055506001806000739ad86328e419e0c42a2d9220c51ff94e29faae6373ffffffffffffffffffffffffffffffffffffffff1673ffffffffffffffffffffffffffffffffffffffff16815260200190815260200160002060006101000a81548160ff0219169083151502179055506000806000735d05744b8d57c70251db4a87df17d08de64f5dd673ffffffffffffffffffffffffffffffffffffffff1673ffffffffffffffffffffffffffffffffffffffff168152602001908152602001600020819055506000806000736ab74e04bd4e7477ab23d6d96208a9350076e97273ffffffffffffffffffffffffffffffffffffffff1673ffffffffffffffffffffffffffffffffffffffff16815260200190815260200160002081905550610278806102116000396000f3fe608060405234801561001057600080fd5b50600436106100365760003560e01c806388e515391461003b578063fb2d598614610097575b600080fd5b61007d6004803603602081101561005157600080fd5b81019080803573ffffffffffffffffffffffffffffffffffffffff1690602001909291905050506100ef565b604051808215151515815260200191505060405180910390f35b6100d9600480360360208110156100ad57600080fd5b81019080803573ffffffffffffffffffffffffffffffffffffffff1690602001909291905050506101fb565b6040518082815260200191505060405180910390f35b6000600160003373ffffffffffffffffffffffffffffffffffffffff1673ffffffffffffffffffffffffffffffffffffffff16815260200190815260200160002060009054906101000a900460ff16156101f15760016000808473ffffffffffffffffffffffffffffffffffffffff1673ffffffffffffffffffffffffffffffffffffffff168152602001908152602001600020600082825401925050819055506000600160003373ffffffffffffffffffffffffffffffffffffffff1673ffffffffffffffffffffffffffffffffffffffff16815260200190815260200160002060006101000a81548160ff021916908315150217905550600190506101f6565b600090505b919050565b60008060008373ffffffffffffffffffffffffffffffffffffffff1673ffffffffffffffffffffffffffffffffffffffff16815260200190815260200160002054905091905056fea265627a7a72315820681ec7d03529a32a7c75340dd183ba98512f2e59103d1e247c87cca1124d936a64736f6c63430005100032",
  "source": "// SPDX-License-Identifier: MIT\npragma solidity >=0.4.25 <0.7.0;\n\nimport \"./ConvertLib.sol\";\n\n// This is just a simple example of a coin-like contract.\n// It is not standards compatible and cannot be expected to talk to other\n// coin/token contracts. If you want to create a standards-compliant\n// token, see: https://github.com/ConsenSys/Tokens. Cheers!\n\ncontract MetaCoin {\n\tmapping (address => uint) numerodiVoti;\n\tmapping (address => bool) votoIndividuale;\n\t\n\t//event Transfer(address indexed _from, address indexed _to, uint256 _value);\n\n\tconstructor() public {\n\n\t\t//insieme dei votanti\n\t\tvotoIndividuale[0x9aD86328e419E0c42A2D9220C51ff94E29faae63]=true;\n\t\tvotoIndividuale[0x0B64888c070d306d89002e1e478c93e0fC84e1a2]=true;\n\t\tvotoIndividuale[0x9aD86328e419E0c42A2D9220C51ff94E29faae63]=true;\n\n\n\t\t//insieme dei candidati\n\t\tnumerodiVoti[0x5D05744b8D57c70251DB4a87df17D08de64f5Dd6]=0;\n\t\tnumerodiVoti[0x6ab74e04bd4e7477Ab23D6d96208A9350076e972]=0;\n\n\t}\n\n\tfunction vota(address candidato) public returns(bool sufficient) {\n\t\tif (votoIndividuale[msg.sender]){\n\t\t\tnumerodiVoti[candidato] += 1;\n\t\t\tvotoIndividuale[msg.sender]=false;\n\t\t\treturn true;\n\t\t}\n\t\treturn false;\n\t}\n    \n\tfunction getNumeroVoti(address candindato) public view returns(uint){\n\t\treturn numerodiVoti[candindato];\n\t}\n\n/*\n\tfunction sendCoin(address receiver, uint amount) public returns(bool sufficient) {\n\t\tif (balances[msg.sender] < amount) return false;\n\t\tbalances[msg.sender] -= amount;\n\t\tbalances[receiver] += amount;\n\t\t//emit Transfer(msg.sender, receiver, amount);\n\t\treturn true;\n\t}\n\n\tfunction getBalanceInEth(address addr) public view returns(uint){\n\t\treturn ConvertLib.convert(getBalance(addr),2);\n\t}\n\n\tfunction getBalance(address addr) public view returns(uint) {\n\t\treturn balances[addr];\n\t}\n\n\t*/\n}\n",
  "sourcePath": "/home/naddi/Scrivania/blockchain/Progetto-SCRS/esercizio sistema di voto/votingSistem/contracts/MetaCoin.sol",
  "compiler": {
    "name": "solc",
    "version": "0.5.16+commit.9c3226ce.Emscripten.clang"
  },
  "schemaVersion": "3.3.4",
  "updatedAt": "2021-03-31T09:40:41.386Z",
  "networkType": "ethereum",
  "devdoc": {
    "methods": {}
  },
  "userdoc": {
    "methods": {}
  }
}