{
  "contractName": "NTF",
  "abi": [
    {
      "inputs": [],
      "stateMutability": "nonpayable",
      "type": "constructor"
    },
    {
      "anonymous": false,
      "inputs": [
        {
          "indexed": true,
          "internalType": "address",
          "name": "owner",
          "type": "address"
        },
        {
          "indexed": true,
          "internalType": "address",
          "name": "approved",
          "type": "address"
        },
        {
          "indexed": true,
          "internalType": "uint256",
          "name": "tokenId",
          "type": "uint256"
        }
      ],
      "name": "Approval",
      "type": "event"
    },
    {
      "anonymous": false,
      "inputs": [
        {
          "indexed": true,
          "internalType": "address",
          "name": "owner",
          "type": "address"
        },
        {
          "indexed": true,
          "internalType": "address",
          "name": "operator",
          "type": "address"
        },
        {
          "indexed": false,
          "internalType": "bool",
          "name": "approved",
          "type": "bool"
        }
      ],
      "name": "ApprovalForAll",
      "type": "event"
    },
    {
      "anonymous": false,
      "inputs": [
        {
          "indexed": true,
          "internalType": "address",
          "name": "from",
          "type": "address"
        },
        {
          "indexed": true,
          "internalType": "address",
          "name": "to",
          "type": "address"
        },
        {
          "indexed": true,
          "internalType": "uint256",
          "name": "tokenId",
          "type": "uint256"
        }
      ],
      "name": "Transfer",
      "type": "event"
    },
    {
      "inputs": [
        {
          "internalType": "address",
          "name": "to",
          "type": "address"
        },
        {
          "internalType": "uint256",
          "name": "tokenId",
          "type": "uint256"
        }
      ],
      "name": "approve",
      "outputs": [],
      "stateMutability": "nonpayable",
      "type": "function"
    },
    {
      "inputs": [
        {
          "internalType": "address",
          "name": "owner",
          "type": "address"
        }
      ],
      "name": "balanceOf",
      "outputs": [
        {
          "internalType": "uint256",
          "name": "",
          "type": "uint256"
        }
      ],
      "stateMutability": "view",
      "type": "function",
      "constant": true
    },
    {
      "inputs": [
        {
          "internalType": "uint256",
          "name": "tokenId",
          "type": "uint256"
        }
      ],
      "name": "getApproved",
      "outputs": [
        {
          "internalType": "address",
          "name": "",
          "type": "address"
        }
      ],
      "stateMutability": "view",
      "type": "function",
      "constant": true
    },
    {
      "inputs": [
        {
          "internalType": "address",
          "name": "owner",
          "type": "address"
        },
        {
          "internalType": "address",
          "name": "operator",
          "type": "address"
        }
      ],
      "name": "isApprovedForAll",
      "outputs": [
        {
          "internalType": "bool",
          "name": "",
          "type": "bool"
        }
      ],
      "stateMutability": "view",
      "type": "function",
      "constant": true
    },
    {
      "inputs": [],
      "name": "name",
      "outputs": [
        {
          "internalType": "string",
          "name": "",
          "type": "string"
        }
      ],
      "stateMutability": "view",
      "type": "function",
      "constant": true
    },
    {
      "inputs": [
        {
          "internalType": "uint256",
          "name": "tokenId",
          "type": "uint256"
        }
      ],
      "name": "ownerOf",
      "outputs": [
        {
          "internalType": "address",
          "name": "",
          "type": "address"
        }
      ],
      "stateMutability": "view",
      "type": "function",
      "constant": true
    },
    {
      "inputs": [
        {
          "internalType": "address",
          "name": "from",
          "type": "address"
        },
        {
          "internalType": "address",
          "name": "to",
          "type": "address"
        },
        {
          "internalType": "uint256",
          "name": "tokenId",
          "type": "uint256"
        }
      ],
      "name": "safeTransferFrom",
      "outputs": [],
      "stateMutability": "nonpayable",
      "type": "function"
    },
    {
      "inputs": [
        {
          "internalType": "address",
          "name": "from",
          "type": "address"
        },
        {
          "internalType": "address",
          "name": "to",
          "type": "address"
        },
        {
          "internalType": "uint256",
          "name": "tokenId",
          "type": "uint256"
        },
        {
          "internalType": "bytes",
          "name": "_data",
          "type": "bytes"
        }
      ],
      "name": "safeTransferFrom",
      "outputs": [],
      "stateMutability": "nonpayable",
      "type": "function"
    },
    {
      "inputs": [
        {
          "internalType": "address",
          "name": "operator",
          "type": "address"
        },
        {
          "internalType": "bool",
          "name": "approved",
          "type": "bool"
        }
      ],
      "name": "setApprovalForAll",
      "outputs": [],
      "stateMutability": "nonpayable",
      "type": "function"
    },
    {
      "inputs": [
        {
          "internalType": "bytes4",
          "name": "interfaceId",
          "type": "bytes4"
        }
      ],
      "name": "supportsInterface",
      "outputs": [
        {
          "internalType": "bool",
          "name": "",
          "type": "bool"
        }
      ],
      "stateMutability": "view",
      "type": "function",
      "constant": true
    },
    {
      "inputs": [],
      "name": "symbol",
      "outputs": [
        {
          "internalType": "string",
          "name": "",
          "type": "string"
        }
      ],
      "stateMutability": "view",
      "type": "function",
      "constant": true
    },
    {
      "inputs": [
        {
          "internalType": "uint256",
          "name": "tokenId",
          "type": "uint256"
        }
      ],
      "name": "tokenURI",
      "outputs": [
        {
          "internalType": "string",
          "name": "",
          "type": "string"
        }
      ],
      "stateMutability": "view",
      "type": "function",
      "constant": true
    },
    {
      "inputs": [
        {
          "internalType": "address",
          "name": "from",
          "type": "address"
        },
        {
          "internalType": "address",
          "name": "to",
          "type": "address"
        },
        {
          "internalType": "uint256",
          "name": "tokenId",
          "type": "uint256"
        }
      ],
      "name": "transferFrom",
      "outputs": [],
      "stateMutability": "nonpayable",
      "type": "function"
    },
    {
      "inputs": [
        {
          "internalType": "uint256",
          "name": "_tokenId",
          "type": "uint256"
        }
      ],
      "name": "getPrezzo",
      "outputs": [
        {
          "internalType": "uint256",
          "name": "",
          "type": "uint256"
        }
      ],
      "stateMutability": "view",
      "type": "function",
      "constant": true
    },
    {
      "inputs": [
        {
          "internalType": "uint256",
          "name": "_tokenId",
          "type": "uint256"
        },
        {
          "internalType": "uint256",
          "name": "costo",
          "type": "uint256"
        }
      ],
      "name": "setForSale",
      "outputs": [],
      "stateMutability": "nonpayable",
      "type": "function"
    },
    {
      "inputs": [
        {
          "internalType": "uint256",
          "name": "_tokenId",
          "type": "uint256"
        }
      ],
      "name": "buy",
      "outputs": [],
      "stateMutability": "payable",
      "type": "function",
      "payable": true
    },
    {
      "inputs": [],
      "name": "numberOfTokens",
      "outputs": [
        {
          "internalType": "uint256",
          "name": "",
          "type": "uint256"
        }
      ],
      "stateMutability": "view",
      "type": "function",
      "constant": true
    },
    {
      "inputs": [
        {
          "internalType": "string",
          "name": "hashh",
          "type": "string"
        }
      ],
      "name": "mint",
      "outputs": [],
      "stateMutability": "nonpayable",
      "type": "function"
    }
  ],
  "bytecode": "0x60806040523480156200001157600080fd5b506040518060400160405280600581526020017f70726f76610000000000000000000000000000000000000000000000000000008152506040518060400160405280600581526020017f50726f7661000000000000000000000000000000000000000000000000000000815250816000908051906020019062000096929190620000b8565b508060019080519060200190620000af929190620000b8565b505050620001cd565b828054620000c69062000168565b90600052602060002090601f016020900481019282620000ea576000855562000136565b82601f106200010557805160ff191683800117855562000136565b8280016001018555821562000136579182015b828111156200013557825182559160200191906001019062000118565b5b50905062000145919062000149565b5090565b5b80821115620001645760008160009055506001016200014a565b5090565b600060028204905060018216806200018157607f821691505b602082108114156200019857620001976200019e565b5b50919050565b7f4e487b7100000000000000000000000000000000000000000000000000000000600052602260045260246000fd5b612f0d80620001dd6000396000f3fe6080604052600436106101095760003560e01c806395d89b4111610095578063c87b56dd11610064578063c87b56dd1461038b578063d85d3d27146103c8578063d96a094a146103f1578063e985e9c51461040d578063f9f16ef21461044a57610109565b806395d89b41146102d15780639dd130f5146102fc578063a22cb46514610339578063b88d4fde1461036257610109565b806317fcfe22116100dc57806317fcfe22146101dc57806323b872dd1461020557806342842e0e1461022e5780636352211e1461025757806370a082311461029457610109565b806301ffc9a71461010e57806306fdde031461014b578063081812fc14610176578063095ea7b3146101b3575b600080fd5b34801561011a57600080fd5b5061013560048036038101906101309190611f99565b610475565b6040516101429190612825565b60405180910390f35b34801561015757600080fd5b50610160610557565b60405161016d9190612840565b60405180910390f35b34801561018257600080fd5b5061019d6004803603810190610198919061202c565b6105e9565b6040516101aa91906127be565b60405180910390f35b3480156101bf57600080fd5b506101da60048036038101906101d59190611f5d565b61066e565b005b3480156101e857600080fd5b5061020360048036038101906101fe9190612055565b610786565b005b34801561021157600080fd5b5061022c60048036038101906102279190611e57565b610812565b005b34801561023a57600080fd5b5061025560048036038101906102509190611e57565b610872565b005b34801561026357600080fd5b5061027e6004803603810190610279919061202c565b610892565b60405161028b91906127be565b60405180910390f35b3480156102a057600080fd5b506102bb60048036038101906102b69190611df2565b610944565b6040516102c89190612aa2565b60405180910390f35b3480156102dd57600080fd5b506102e66109fc565b6040516102f39190612840565b60405180910390f35b34801561030857600080fd5b50610323600480360381019061031e919061202c565b610a8e565b6040516103309190612aa2565b60405180910390f35b34801561034557600080fd5b50610360600480360381019061035b9190611f21565b610aab565b005b34801561036e57600080fd5b5061038960048036038101906103849190611ea6565b610c2c565b005b34801561039757600080fd5b506103b260048036038101906103ad919061202c565b610c8e565b6040516103bf9190612840565b60405180910390f35b3480156103d457600080fd5b506103ef60048036038101906103ea9190611feb565b610d35565b005b61040b6004803603810190610406919061202c565b610efa565b005b34801561041957600080fd5b50610434600480360381019061042f9190611e1b565b6110a4565b6040516104419190612825565b60405180910390f35b34801561045657600080fd5b5061045f611138565b60405161046c9190612aa2565b60405180910390f35b60007f80ac58cd000000000000000000000000000000000000000000000000000000007bffffffffffffffffffffffffffffffffffffffffffffffffffffffff1916827bffffffffffffffffffffffffffffffffffffffffffffffffffffffff1916148061054057507f5b5e139f000000000000000000000000000000000000000000000000000000007bffffffffffffffffffffffffffffffffffffffffffffffffffffffff1916827bffffffffffffffffffffffffffffffffffffffffffffffffffffffff1916145b80610550575061054f82611149565b5b9050919050565b60606000805461056690612d02565b80601f016020809104026020016040519081016040528092919081815260200182805461059290612d02565b80156105df5780601f106105b4576101008083540402835291602001916105df565b820191906000526020600020905b8154815290600101906020018083116105c257829003601f168201915b5050505050905090565b60006105f4826111b3565b610633576040517f08c379a000000000000000000000000000000000000000000000000000000000815260040161062a906129e2565b60405180910390fd5b6004600083815260200190815260200160002060009054906101000a900473ffffffffffffffffffffffffffffffffffffffff169050919050565b600061067982610892565b90508073ffffffffffffffffffffffffffffffffffffffff168373ffffffffffffffffffffffffffffffffffffffff1614156106ea576040517f08c379a00000000000000000000000000000000000000000000000000000000081526004016106e190612a42565b60405180910390fd5b8073ffffffffffffffffffffffffffffffffffffffff1661070961121f565b73ffffffffffffffffffffffffffffffffffffffff16148061073857506107378161073261121f565b6110a4565b5b610777576040517f08c379a000000000000000000000000000000000000000000000000000000000815260040161076e90612962565b60405180910390fd5b6107818383611227565b505050565b600061079183610892565b905060006009600085815260200190815260200160002054146107b357600080fd5b3373ffffffffffffffffffffffffffffffffffffffff168173ffffffffffffffffffffffffffffffffffffffff16146107eb57600080fd5b81600960008581526020019081526020016000208190555061080d308461066e565b505050565b61082361081d61121f565b826112e0565b610862576040517f08c379a000000000000000000000000000000000000000000000000000000000815260040161085990612a82565b60405180910390fd5b61086d8383836113be565b505050565b61088d83838360405180602001604052806000815250610c2c565b505050565b6000806002600084815260200190815260200160002060009054906101000a900473ffffffffffffffffffffffffffffffffffffffff169050600073ffffffffffffffffffffffffffffffffffffffff168173ffffffffffffffffffffffffffffffffffffffff16141561093b576040517f08c379a0000000000000000000000000000000000000000000000000000000008152600401610932906129a2565b60405180910390fd5b80915050919050565b60008073ffffffffffffffffffffffffffffffffffffffff168273ffffffffffffffffffffffffffffffffffffffff1614156109b5576040517f08c379a00000000000000000000000000000000000000000000000000000000081526004016109ac90612982565b60405180910390fd5b600360008373ffffffffffffffffffffffffffffffffffffffff1673ffffffffffffffffffffffffffffffffffffffff168152602001908152602001600020549050919050565b606060018054610a0b90612d02565b80601f0160208091040260200160405190810160405280929190818152602001828054610a3790612d02565b8015610a845780601f10610a5957610100808354040283529160200191610a84565b820191906000526020600020905b815481529060010190602001808311610a6757829003601f168201915b5050505050905090565b600060096000838152602001908152602001600020549050919050565b610ab361121f565b73ffffffffffffffffffffffffffffffffffffffff168273ffffffffffffffffffffffffffffffffffffffff161415610b21576040517f08c379a0000000000000000000000000000000000000000000000000000000008152600401610b1890612902565b60405180910390fd5b8060056000610b2e61121f565b73ffffffffffffffffffffffffffffffffffffffff1673ffffffffffffffffffffffffffffffffffffffff16815260200190815260200160002060008473ffffffffffffffffffffffffffffffffffffffff1673ffffffffffffffffffffffffffffffffffffffff16815260200190815260200160002060006101000a81548160ff0219169083151502179055508173ffffffffffffffffffffffffffffffffffffffff16610bdb61121f565b73ffffffffffffffffffffffffffffffffffffffff167f17307eab39ab6107e8899845ad3d59bd9653f200f220920489ca2b5937696c3183604051610c209190612825565b60405180910390a35050565b610c3d610c3761121f565b836112e0565b610c7c576040517f08c379a0000000000000000000000000000000000000000000000000000000008152600401610c7390612a82565b60405180910390fd5b610c888484848461161a565b50505050565b6060610c99826111b3565b610cd8576040517f08c379a0000000000000000000000000000000000000000000000000000000008152600401610ccf90612a22565b60405180910390fd5b6000610ce2611676565b90506000815111610d025760405180602001604052806000815250610d2d565b80610d0c8461168d565b604051602001610d1d92919061279a565b6040516020818303038152906040525b915050919050565b610d3f600661183a565b6000610d4b6006611850565b9050610e01600760008381526020019081526020016000208054610d6e90612d02565b80601f0160208091040260200160405190810160405280929190818152602001828054610d9a90612d02565b8015610de75780601f10610dbc57610100808354040283529160200191610de7565b820191906000526020600020905b815481529060010190602001808311610dca57829003601f168201915b50505050506040518060200160405280600081525061185e565b610e40576040517f08c379a0000000000000000000000000000000000000000000000000000000008152600401610e3790612882565b60405180910390fd5b6000600883604051610e529190612783565b90815260200160405180910390205414610ea1576040517f08c379a0000000000000000000000000000000000000000000000000000000008152600401610e9890612882565b60405180910390fd5b610eab3382611899565b81600760008381526020019081526020016000209080519060200190610ed2929190611c16565b5080600883604051610ee49190612783565b9081526020016040518091039020819055505050565b600033905060003490506000610f0f84610892565b905060008190506000600960008781526020019081526020016000205411610f6c576040517f08c379a0000000000000000000000000000000000000000000000000000000008152600401610f63906128c2565b60405180910390fd5b3073ffffffffffffffffffffffffffffffffffffffff16610f8c866105e9565b73ffffffffffffffffffffffffffffffffffffffff1614610fe2576040517f08c379a0000000000000000000000000000000000000000000000000000000008152600401610fd990612a62565b60405180910390fd5b6009600086815260200190815260200160002054831015611038576040517f08c379a000000000000000000000000000000000000000000000000000000000815260040161102f90612942565b60405180910390fd5b8073ffffffffffffffffffffffffffffffffffffffff166108fc60096000888152602001908152602001600020549081150290604051600060405180830381858888f19350505050158015611091573d6000803e3d6000fd5b5061109d8185876113be565b5050505050565b6000600560008473ffffffffffffffffffffffffffffffffffffffff1673ffffffffffffffffffffffffffffffffffffffff16815260200190815260200160002060008373ffffffffffffffffffffffffffffffffffffffff1673ffffffffffffffffffffffffffffffffffffffff16815260200190815260200160002060009054906101000a900460ff16905092915050565b60006111446006611850565b905090565b60007f01ffc9a7000000000000000000000000000000000000000000000000000000007bffffffffffffffffffffffffffffffffffffffffffffffffffffffff1916827bffffffffffffffffffffffffffffffffffffffffffffffffffffffff1916149050919050565b60008073ffffffffffffffffffffffffffffffffffffffff166002600084815260200190815260200160002060009054906101000a900473ffffffffffffffffffffffffffffffffffffffff1673ffffffffffffffffffffffffffffffffffffffff1614159050919050565b600033905090565b816004600083815260200190815260200160002060006101000a81548173ffffffffffffffffffffffffffffffffffffffff021916908373ffffffffffffffffffffffffffffffffffffffff160217905550808273ffffffffffffffffffffffffffffffffffffffff1661129a83610892565b73ffffffffffffffffffffffffffffffffffffffff167f8c5be1e5ebec7d5bd14f71427d1e84f3dd0314c0f7b2291e5b200ac8c7c3b92560405160405180910390a45050565b60006112eb826111b3565b61132a576040517f08c379a000000000000000000000000000000000000000000000000000000000815260040161132190612922565b60405180910390fd5b600061133583610892565b90508073ffffffffffffffffffffffffffffffffffffffff168473ffffffffffffffffffffffffffffffffffffffff1614806113a457508373ffffffffffffffffffffffffffffffffffffffff1661138c846105e9565b73ffffffffffffffffffffffffffffffffffffffff16145b806113b557506113b481856110a4565b5b91505092915050565b8273ffffffffffffffffffffffffffffffffffffffff166113de82610892565b73ffffffffffffffffffffffffffffffffffffffff1614611434576040517f08c379a000000000000000000000000000000000000000000000000000000000815260040161142b90612a02565b60405180910390fd5b600073ffffffffffffffffffffffffffffffffffffffff168273ffffffffffffffffffffffffffffffffffffffff1614156114a4576040517f08c379a000000000000000000000000000000000000000000000000000000000815260040161149b906128e2565b60405180910390fd5b6114af838383611a67565b6114ba600082611227565b6001600360008573ffffffffffffffffffffffffffffffffffffffff1673ffffffffffffffffffffffffffffffffffffffff168152602001908152602001600020600082825461150a9190612c18565b925050819055506001600360008473ffffffffffffffffffffffffffffffffffffffff1673ffffffffffffffffffffffffffffffffffffffff16815260200190815260200160002060008282546115619190612b91565b92505081905550816002600083815260200190815260200160002060006101000a81548173ffffffffffffffffffffffffffffffffffffffff021916908373ffffffffffffffffffffffffffffffffffffffff160217905550808273ffffffffffffffffffffffffffffffffffffffff168473ffffffffffffffffffffffffffffffffffffffff167fddf252ad1be2c89b69c2b068fc378daa952ba7f163c4a11628f55a4df523b3ef60405160405180910390a4505050565b6116258484846113be565b61163184848484611a6c565b611670576040517f08c379a000000000000000000000000000000000000000000000000000000000815260040161166790612862565b60405180910390fd5b50505050565b606060405180602001604052806000815250905090565b606060008214156116d5576040518060400160405280600181526020017f30000000000000000000000000000000000000000000000000000000000000008152509050611835565b600082905060005b600082146117075780806116f090612d34565b915050600a826117009190612be7565b91506116dd565b60008167ffffffffffffffff811115611749577f4e487b7100000000000000000000000000000000000000000000000000000000600052604160045260246000fd5b6040519080825280601f01601f19166020018201604052801561177b5781602001600182028036833780820191505090505b5090505b6000851461182e576001826117949190612c18565b9150600a856117a39190612d7d565b60306117af9190612b91565b60f81b8183815181106117eb577f4e487b7100000000000000000000000000000000000000000000000000000000600052603260045260246000fd5b60200101907effffffffffffffffffffffffffffffffffffffffffffffffffffffffffffff1916908160001a905350600a856118279190612be7565b945061177f565b8093505050505b919050565b6001816000016000828254019250508190555050565b600081600001549050919050565b6000808390506000839050805182511461187d57600092505050611893565b8080519060200120828051906020012014925050505b92915050565b600073ffffffffffffffffffffffffffffffffffffffff168273ffffffffffffffffffffffffffffffffffffffff161415611909576040517f08c379a0000000000000000000000000000000000000000000000000000000008152600401611900906129c2565b60405180910390fd5b611912816111b3565b15611952576040517f08c379a0000000000000000000000000000000000000000000000000000000008152600401611949906128a2565b60405180910390fd5b61195e60008383611a67565b6001600360008473ffffffffffffffffffffffffffffffffffffffff1673ffffffffffffffffffffffffffffffffffffffff16815260200190815260200160002060008282546119ae9190612b91565b92505081905550816002600083815260200190815260200160002060006101000a81548173ffffffffffffffffffffffffffffffffffffffff021916908373ffffffffffffffffffffffffffffffffffffffff160217905550808273ffffffffffffffffffffffffffffffffffffffff16600073ffffffffffffffffffffffffffffffffffffffff167fddf252ad1be2c89b69c2b068fc378daa952ba7f163c4a11628f55a4df523b3ef60405160405180910390a45050565b505050565b6000611a8d8473ffffffffffffffffffffffffffffffffffffffff16611c03565b15611bf6578373ffffffffffffffffffffffffffffffffffffffff1663150b7a02611ab661121f565b8786866040518563ffffffff1660e01b8152600401611ad894939291906127d9565b602060405180830381600087803b158015611af257600080fd5b505af1925050508015611b2357506040513d601f19601f82011682018060405250810190611b209190611fc2565b60015b611ba6573d8060008114611b53576040519150601f19603f3d011682016040523d82523d6000602084013e611b58565b606091505b50600081511415611b9e576040517f08c379a0000000000000000000000000000000000000000000000000000000008152600401611b9590612862565b60405180910390fd5b805181602001fd5b63150b7a0260e01b7bffffffffffffffffffffffffffffffffffffffffffffffffffffffff1916817bffffffffffffffffffffffffffffffffffffffffffffffffffffffff191614915050611bfb565b600190505b949350505050565b600080823b905060008111915050919050565b828054611c2290612d02565b90600052602060002090601f016020900481019282611c445760008555611c8b565b82601f10611c5d57805160ff1916838001178555611c8b565b82800160010185558215611c8b579182015b82811115611c8a578251825591602001919060010190611c6f565b5b509050611c989190611c9c565b5090565b5b80821115611cb5576000816000905550600101611c9d565b5090565b6000611ccc611cc784612aee565b612abd565b905082815260208101848484011115611ce457600080fd5b611cef848285612cc0565b509392505050565b6000611d0a611d0584612b1e565b612abd565b905082815260208101848484011115611d2257600080fd5b611d2d848285612cc0565b509392505050565b600081359050611d4481612e7b565b92915050565b600081359050611d5981612e92565b92915050565b600081359050611d6e81612ea9565b92915050565b600081519050611d8381612ea9565b92915050565b600082601f830112611d9a57600080fd5b8135611daa848260208601611cb9565b91505092915050565b600082601f830112611dc457600080fd5b8135611dd4848260208601611cf7565b91505092915050565b600081359050611dec81612ec0565b92915050565b600060208284031215611e0457600080fd5b6000611e1284828501611d35565b91505092915050565b60008060408385031215611e2e57600080fd5b6000611e3c85828601611d35565b9250506020611e4d85828601611d35565b9150509250929050565b600080600060608486031215611e6c57600080fd5b6000611e7a86828701611d35565b9350506020611e8b86828701611d35565b9250506040611e9c86828701611ddd565b9150509250925092565b60008060008060808587031215611ebc57600080fd5b6000611eca87828801611d35565b9450506020611edb87828801611d35565b9350506040611eec87828801611ddd565b925050606085013567ffffffffffffffff811115611f0957600080fd5b611f1587828801611d89565b91505092959194509250565b60008060408385031215611f3457600080fd5b6000611f4285828601611d35565b9250506020611f5385828601611d4a565b9150509250929050565b60008060408385031215611f7057600080fd5b6000611f7e85828601611d35565b9250506020611f8f85828601611ddd565b9150509250929050565b600060208284031215611fab57600080fd5b6000611fb984828501611d5f565b91505092915050565b600060208284031215611fd457600080fd5b6000611fe284828501611d74565b91505092915050565b600060208284031215611ffd57600080fd5b600082013567ffffffffffffffff81111561201757600080fd5b61202384828501611db3565b91505092915050565b60006020828403121561203e57600080fd5b600061204c84828501611ddd565b91505092915050565b6000806040838503121561206857600080fd5b600061207685828601611ddd565b925050602061208785828601611ddd565b9150509250929050565b61209a81612c4c565b82525050565b6120a981612c5e565b82525050565b60006120ba82612b4e565b6120c48185612b64565b93506120d4818560208601612ccf565b6120dd81612e6a565b840191505092915050565b60006120f382612b59565b6120fd8185612b75565b935061210d818560208601612ccf565b61211681612e6a565b840191505092915050565b600061212c82612b59565b6121368185612b86565b9350612146818560208601612ccf565b80840191505092915050565b600061215f603283612b75565b91507f4552433732313a207472616e7366657220746f206e6f6e20455243373231526560008301527f63656976657220696d706c656d656e74657200000000000000000000000000006020830152604082019050919050565b60006121c5600d83612b75565b91507f676961206573697374656e7465000000000000000000000000000000000000006000830152602082019050919050565b6000612205601c83612b75565b91507f4552433732313a20746f6b656e20616c7265616479206d696e746564000000006000830152602082019050919050565b6000612245600183612b75565b91507f61000000000000000000000000000000000000000000000000000000000000006000830152602082019050919050565b6000612285602483612b75565b91507f4552433732313a207472616e7366657220746f20746865207a65726f2061646460008301527f72657373000000000000000000000000000000000000000000000000000000006020830152604082019050919050565b60006122eb601983612b75565b91507f4552433732313a20617070726f766520746f2063616c6c6572000000000000006000830152602082019050919050565b600061232b602c83612b75565b91507f4552433732313a206f70657261746f7220717565727920666f72206e6f6e657860008301527f697374656e7420746f6b656e00000000000000000000000000000000000000006020830152604082019050919050565b6000612391600183612b75565b91507f73000000000000000000000000000000000000000000000000000000000000006000830152602082019050919050565b60006123d1603883612b75565b91507f4552433732313a20617070726f76652063616c6c6572206973206e6f74206f7760008301527f6e6572206e6f7220617070726f76656420666f7220616c6c00000000000000006020830152604082019050919050565b6000612437602a83612b75565b91507f4552433732313a2062616c616e636520717565727920666f7220746865207a6560008301527f726f2061646472657373000000000000000000000000000000000000000000006020830152604082019050919050565b600061249d602983612b75565b91507f4552433732313a206f776e657220717565727920666f72206e6f6e657869737460008301527f656e7420746f6b656e00000000000000000000000000000000000000000000006020830152604082019050919050565b6000612503602083612b75565b91507f4552433732313a206d696e7420746f20746865207a65726f20616464726573736000830152602082019050919050565b6000612543602c83612b75565b91507f4552433732313a20617070726f76656420717565727920666f72206e6f6e657860008301527f697374656e7420746f6b656e00000000000000000000000000000000000000006020830152604082019050919050565b60006125a9602983612b75565b91507f4552433732313a207472616e73666572206f6620746f6b656e2074686174206960008301527f73206e6f74206f776e00000000000000000000000000000000000000000000006020830152604082019050919050565b600061260f602f83612b75565b91507f4552433732314d657461646174613a2055524920717565727920666f72206e6f60008301527f6e6578697374656e7420746f6b656e00000000000000000000000000000000006020830152604082019050919050565b6000612675602183612b75565b91507f4552433732313a20617070726f76616c20746f2063757272656e74206f776e6560008301527f72000000000000000000000000000000000000000000000000000000000000006020830152604082019050919050565b60006126db600183612b75565b91507f62000000000000000000000000000000000000000000000000000000000000006000830152602082019050919050565b600061271b603183612b75565b91507f4552433732313a207472616e736665722063616c6c6572206973206e6f74206f60008301527f776e6572206e6f7220617070726f7665640000000000000000000000000000006020830152604082019050919050565b61277d81612cb6565b82525050565b600061278f8284612121565b915081905092915050565b60006127a68285612121565b91506127b28284612121565b91508190509392505050565b60006020820190506127d36000830184612091565b92915050565b60006080820190506127ee6000830187612091565b6127fb6020830186612091565b6128086040830185612774565b818103606083015261281a81846120af565b905095945050505050565b600060208201905061283a60008301846120a0565b92915050565b6000602082019050818103600083015261285a81846120e8565b905092915050565b6000602082019050818103600083015261287b81612152565b9050919050565b6000602082019050818103600083015261289b816121b8565b9050919050565b600060208201905081810360008301526128bb816121f8565b9050919050565b600060208201905081810360008301526128db81612238565b9050919050565b600060208201905081810360008301526128fb81612278565b9050919050565b6000602082019050818103600083015261291b816122de565b9050919050565b6000602082019050818103600083015261293b8161231e565b9050919050565b6000602082019050818103600083015261295b81612384565b9050919050565b6000602082019050818103600083015261297b816123c4565b9050919050565b6000602082019050818103600083015261299b8161242a565b9050919050565b600060208201905081810360008301526129bb81612490565b9050919050565b600060208201905081810360008301526129db816124f6565b9050919050565b600060208201905081810360008301526129fb81612536565b9050919050565b60006020820190508181036000830152612a1b8161259c565b9050919050565b60006020820190508181036000830152612a3b81612602565b9050919050565b60006020820190508181036000830152612a5b81612668565b9050919050565b60006020820190508181036000830152612a7b816126ce565b9050919050565b60006020820190508181036000830152612a9b8161270e565b9050919050565b6000602082019050612ab76000830184612774565b92915050565b6000604051905081810181811067ffffffffffffffff82111715612ae457612ae3612e3b565b5b8060405250919050565b600067ffffffffffffffff821115612b0957612b08612e3b565b5b601f19601f8301169050602081019050919050565b600067ffffffffffffffff821115612b3957612b38612e3b565b5b601f19601f8301169050602081019050919050565b600081519050919050565b600081519050919050565b600082825260208201905092915050565b600082825260208201905092915050565b600081905092915050565b6000612b9c82612cb6565b9150612ba783612cb6565b9250827fffffffffffffffffffffffffffffffffffffffffffffffffffffffffffffffff03821115612bdc57612bdb612dae565b5b828201905092915050565b6000612bf282612cb6565b9150612bfd83612cb6565b925082612c0d57612c0c612ddd565b5b828204905092915050565b6000612c2382612cb6565b9150612c2e83612cb6565b925082821015612c4157612c40612dae565b5b828203905092915050565b6000612c5782612c96565b9050919050565b60008115159050919050565b60007fffffffff0000000000000000000000000000000000000000000000000000000082169050919050565b600073ffffffffffffffffffffffffffffffffffffffff82169050919050565b6000819050919050565b82818337600083830152505050565b60005b83811015612ced578082015181840152602081019050612cd2565b83811115612cfc576000848401525b50505050565b60006002820490506001821680612d1a57607f821691505b60208210811415612d2e57612d2d612e0c565b5b50919050565b6000612d3f82612cb6565b91507fffffffffffffffffffffffffffffffffffffffffffffffffffffffffffffffff821415612d7257612d71612dae565b5b600182019050919050565b6000612d8882612cb6565b9150612d9383612cb6565b925082612da357612da2612ddd565b5b828206905092915050565b7f4e487b7100000000000000000000000000000000000000000000000000000000600052601160045260246000fd5b7f4e487b7100000000000000000000000000000000000000000000000000000000600052601260045260246000fd5b7f4e487b7100000000000000000000000000000000000000000000000000000000600052602260045260246000fd5b7f4e487b7100000000000000000000000000000000000000000000000000000000600052604160045260246000fd5b6000601f19601f8301169050919050565b612e8481612c4c565b8114612e8f57600080fd5b50565b612e9b81612c5e565b8114612ea657600080fd5b50565b612eb281612c6a565b8114612ebd57600080fd5b50565b612ec981612cb6565b8114612ed457600080fd5b5056fea2646970667358221220f4b4b6a7cd1a96123382b6efbc5dd26175e9968b342cdfb3292e185232c9e4e964736f6c63430008000033",
  "immutableReferences": {},
  "source": "pragma solidity ^0.8.0;\n\n\nimport \"@openzeppelin/contracts/token/ERC721/ERC721.sol\";\nimport \"@openzeppelin/contracts/utils/Counters.sol\";\n\ncontract NTF is ERC721{\n    using Counters for Counters.Counter;\n    \n    Counters.Counter private _tokenIds;\n\n\n    mapping (uint256 =>  string) idToHash;\n    mapping (string =>  uint256) hashToId;\n\n\n    //mapping (uint256 => bool) forSale;\n    mapping (uint256 => uint256) prezzo;\n\n\n    constructor() ERC721(\"prova\",\"Prova\") public{}\n\n\n\nfunction getPrezzo(uint256 _tokenId) view public returns (uint256){\n    return prezzo[_tokenId];\n}\n\n\n\n\nfunction setForSale(uint256 _tokenId,uint256 costo) external{\n    address owner = ownerOf(_tokenId);\n    require(prezzo[_tokenId]==0);\n    require(owner == msg.sender);\n    prezzo[_tokenId]=costo;\n    approve(address(this), _tokenId);\n    //emit Approval(owner, address(this), _tokenId);\n    }\n\n\n\n\n    function buy(uint256 _tokenId) external  payable {\n        address buyer = msg.sender;\n        uint256 payedPrice = msg.value;\n        address ownerA =ownerOf(_tokenId);\n        address payable owner= payable(ownerA);\n        require(prezzo[_tokenId]>0,\"a\");\n        require(getApproved(_tokenId) == address(this),\"b\");\n        require(payedPrice >= prezzo[_tokenId],\"s\");\n        owner.transfer(prezzo[_tokenId]);\n        _transfer(owner,buyer,_tokenId);  \n}\n\n\n\n    function numberOfTokens()  view public returns (uint256){\n        return _tokenIds.current();\n    }\n\n\n\n    function mint(string memory hashh) public{\n        _tokenIds.increment();\n        uint256 newItemId = _tokenIds.current();\n\n\n//controllo hash duplicati\n        require(compare(idToHash[newItemId],\"\"),\"gia esistente\");\n        require(hashToId[hashh]==0,\"gia esistente\");\n\n        _mint(msg.sender, newItemId);\n        idToHash[newItemId]=hashh;\n        hashToId[hashh]=newItemId;\n    }\n\n\n\n\n\n\n\n\n\n\n\n\n\n\n      function compare(string memory _s1, string memory _s2) \n            pure\n            internal \n            returns(bool) {\n              bytes memory b1 = bytes(_s1);\n              bytes memory b2 = bytes(_s2);\n              if (b1.length != b2.length) {\n                return false;\n              }\n              return keccak256(b1) == keccak256(b2);\n  }\n\n\n\n\n\n\n}",
  "sourcePath": "/home/naddi/Scrivania/blockchain/Progetto-SCRS/esercizio ntf/contracts/NTF.sol",
  "compiler": {
    "name": "solc",
    "version": "0.8.0+commit.c7dfd78e.Emscripten.clang"
  },
  "schemaVersion": "3.3.4",
  "updatedAt": "2021-04-08T18:17:45.415Z",
  "networkType": "ethereum",
  "devdoc": {
    "kind": "dev",
    "methods": {
      "approve(address,uint256)": {
        "details": "See {IERC721-approve}."
      },
      "balanceOf(address)": {
        "details": "See {IERC721-balanceOf}."
      },
      "getApproved(uint256)": {
        "details": "See {IERC721-getApproved}."
      },
      "isApprovedForAll(address,address)": {
        "details": "See {IERC721-isApprovedForAll}."
      },
      "name()": {
        "details": "See {IERC721Metadata-name}."
      },
      "ownerOf(uint256)": {
        "details": "See {IERC721-ownerOf}."
      },
      "safeTransferFrom(address,address,uint256)": {
        "details": "See {IERC721-safeTransferFrom}."
      },
      "safeTransferFrom(address,address,uint256,bytes)": {
        "details": "See {IERC721-safeTransferFrom}."
      },
      "setApprovalForAll(address,bool)": {
        "details": "See {IERC721-setApprovalForAll}."
      },
      "supportsInterface(bytes4)": {
        "details": "See {IERC165-supportsInterface}."
      },
      "symbol()": {
        "details": "See {IERC721Metadata-symbol}."
      },
      "tokenURI(uint256)": {
        "details": "See {IERC721Metadata-tokenURI}."
      },
      "transferFrom(address,address,uint256)": {
        "details": "See {IERC721-transferFrom}."
      }
    },
    "version": 1
  },
  "userdoc": {
    "kind": "user",
    "methods": {},
    "version": 1
  }
}