{
  "contractName": "NTF",
  "abi": [
    {
      "inputs": [],
      "stateMutability": "nonpayable",
      "type": "constructor"
    },
    {
      "anonymous": false,
      "inputs": [
        {
          "indexed": true,
          "internalType": "address",
          "name": "owner",
          "type": "address"
        },
        {
          "indexed": true,
          "internalType": "address",
          "name": "approved",
          "type": "address"
        },
        {
          "indexed": true,
          "internalType": "uint256",
          "name": "tokenId",
          "type": "uint256"
        }
      ],
      "name": "Approval",
      "type": "event"
    },
    {
      "anonymous": false,
      "inputs": [
        {
          "indexed": true,
          "internalType": "address",
          "name": "owner",
          "type": "address"
        },
        {
          "indexed": true,
          "internalType": "address",
          "name": "operator",
          "type": "address"
        },
        {
          "indexed": false,
          "internalType": "bool",
          "name": "approved",
          "type": "bool"
        }
      ],
      "name": "ApprovalForAll",
      "type": "event"
    },
    {
      "anonymous": false,
      "inputs": [
        {
          "indexed": true,
          "internalType": "address",
          "name": "from",
          "type": "address"
        },
        {
          "indexed": true,
          "internalType": "address",
          "name": "to",
          "type": "address"
        },
        {
          "indexed": true,
          "internalType": "uint256",
          "name": "tokenId",
          "type": "uint256"
        }
      ],
      "name": "Transfer",
      "type": "event"
    },
    {
      "inputs": [
        {
          "internalType": "address",
          "name": "to",
          "type": "address"
        },
        {
          "internalType": "uint256",
          "name": "tokenId",
          "type": "uint256"
        }
      ],
      "name": "approve",
      "outputs": [],
      "stateMutability": "nonpayable",
      "type": "function"
    },
    {
      "inputs": [
        {
          "internalType": "address",
          "name": "owner",
          "type": "address"
        }
      ],
      "name": "balanceOf",
      "outputs": [
        {
          "internalType": "uint256",
          "name": "",
          "type": "uint256"
        }
      ],
      "stateMutability": "view",
      "type": "function",
      "constant": true
    },
    {
      "inputs": [
        {
          "internalType": "uint256",
          "name": "tokenId",
          "type": "uint256"
        }
      ],
      "name": "getApproved",
      "outputs": [
        {
          "internalType": "address",
          "name": "",
          "type": "address"
        }
      ],
      "stateMutability": "view",
      "type": "function",
      "constant": true
    },
    {
      "inputs": [
        {
          "internalType": "address",
          "name": "owner",
          "type": "address"
        },
        {
          "internalType": "address",
          "name": "operator",
          "type": "address"
        }
      ],
      "name": "isApprovedForAll",
      "outputs": [
        {
          "internalType": "bool",
          "name": "",
          "type": "bool"
        }
      ],
      "stateMutability": "view",
      "type": "function",
      "constant": true
    },
    {
      "inputs": [],
      "name": "name",
      "outputs": [
        {
          "internalType": "string",
          "name": "",
          "type": "string"
        }
      ],
      "stateMutability": "view",
      "type": "function",
      "constant": true
    },
    {
      "inputs": [
        {
          "internalType": "uint256",
          "name": "tokenId",
          "type": "uint256"
        }
      ],
      "name": "ownerOf",
      "outputs": [
        {
          "internalType": "address",
          "name": "",
          "type": "address"
        }
      ],
      "stateMutability": "view",
      "type": "function",
      "constant": true
    },
    {
      "inputs": [
        {
          "internalType": "address",
          "name": "from",
          "type": "address"
        },
        {
          "internalType": "address",
          "name": "to",
          "type": "address"
        },
        {
          "internalType": "uint256",
          "name": "tokenId",
          "type": "uint256"
        }
      ],
      "name": "safeTransferFrom",
      "outputs": [],
      "stateMutability": "nonpayable",
      "type": "function"
    },
    {
      "inputs": [
        {
          "internalType": "address",
          "name": "from",
          "type": "address"
        },
        {
          "internalType": "address",
          "name": "to",
          "type": "address"
        },
        {
          "internalType": "uint256",
          "name": "tokenId",
          "type": "uint256"
        },
        {
          "internalType": "bytes",
          "name": "_data",
          "type": "bytes"
        }
      ],
      "name": "safeTransferFrom",
      "outputs": [],
      "stateMutability": "nonpayable",
      "type": "function"
    },
    {
      "inputs": [
        {
          "internalType": "address",
          "name": "operator",
          "type": "address"
        },
        {
          "internalType": "bool",
          "name": "approved",
          "type": "bool"
        }
      ],
      "name": "setApprovalForAll",
      "outputs": [],
      "stateMutability": "nonpayable",
      "type": "function"
    },
    {
      "inputs": [
        {
          "internalType": "bytes4",
          "name": "interfaceId",
          "type": "bytes4"
        }
      ],
      "name": "supportsInterface",
      "outputs": [
        {
          "internalType": "bool",
          "name": "",
          "type": "bool"
        }
      ],
      "stateMutability": "view",
      "type": "function",
      "constant": true
    },
    {
      "inputs": [],
      "name": "symbol",
      "outputs": [
        {
          "internalType": "string",
          "name": "",
          "type": "string"
        }
      ],
      "stateMutability": "view",
      "type": "function",
      "constant": true
    },
    {
      "inputs": [
        {
          "internalType": "uint256",
          "name": "tokenId",
          "type": "uint256"
        }
      ],
      "name": "tokenURI",
      "outputs": [
        {
          "internalType": "string",
          "name": "",
          "type": "string"
        }
      ],
      "stateMutability": "view",
      "type": "function",
      "constant": true
    },
    {
      "inputs": [
        {
          "internalType": "address",
          "name": "from",
          "type": "address"
        },
        {
          "internalType": "address",
          "name": "to",
          "type": "address"
        },
        {
          "internalType": "uint256",
          "name": "tokenId",
          "type": "uint256"
        }
      ],
      "name": "transferFrom",
      "outputs": [],
      "stateMutability": "nonpayable",
      "type": "function"
    },
    {
      "inputs": [],
      "name": "numberOfTokens",
      "outputs": [
        {
          "internalType": "uint256",
          "name": "",
          "type": "uint256"
        }
      ],
      "stateMutability": "view",
      "type": "function",
      "constant": true
    },
    {
      "inputs": [
        {
          "internalType": "uint256",
          "name": "_tokenId",
          "type": "uint256"
        }
      ],
      "name": "getPrezzo",
      "outputs": [
        {
          "internalType": "uint256",
          "name": "",
          "type": "uint256"
        }
      ],
      "stateMutability": "view",
      "type": "function",
      "constant": true
    },
    {
      "inputs": [
        {
          "internalType": "string",
          "name": "hashh",
          "type": "string"
        }
      ],
      "name": "getIdfromHash",
      "outputs": [
        {
          "internalType": "uint256",
          "name": "",
          "type": "uint256"
        }
      ],
      "stateMutability": "view",
      "type": "function",
      "constant": true
    },
    {
      "inputs": [
        {
          "internalType": "uint256",
          "name": "id",
          "type": "uint256"
        }
      ],
      "name": "getHashfromId",
      "outputs": [
        {
          "internalType": "string",
          "name": "",
          "type": "string"
        }
      ],
      "stateMutability": "view",
      "type": "function",
      "constant": true
    },
    {
      "inputs": [
        {
          "internalType": "uint256",
          "name": "idtoken",
          "type": "uint256"
        },
        {
          "internalType": "uint256",
          "name": "costo",
          "type": "uint256"
        }
      ],
      "name": "changePrice",
      "outputs": [],
      "stateMutability": "nonpayable",
      "type": "function"
    },
    {
      "inputs": [
        {
          "internalType": "uint256",
          "name": "idtoken",
          "type": "uint256"
        }
      ],
      "name": "removeFromSale",
      "outputs": [],
      "stateMutability": "nonpayable",
      "type": "function"
    },
    {
      "inputs": [
        {
          "internalType": "uint256",
          "name": "_tokenId",
          "type": "uint256"
        },
        {
          "internalType": "uint256",
          "name": "costo",
          "type": "uint256"
        }
      ],
      "name": "setForSale",
      "outputs": [],
      "stateMutability": "nonpayable",
      "type": "function"
    },
    {
      "inputs": [
        {
          "internalType": "uint256",
          "name": "_tokenId",
          "type": "uint256"
        }
      ],
      "name": "buy",
      "outputs": [],
      "stateMutability": "payable",
      "type": "function",
      "payable": true
    },
    {
      "inputs": [
        {
          "internalType": "string",
          "name": "hashh",
          "type": "string"
        }
      ],
      "name": "mint",
      "outputs": [],
      "stateMutability": "nonpayable",
      "type": "function"
    }
  ],
  "bytecode": "0x60806040523480156200001157600080fd5b506040518060400160405280600581526020017f6f706572610000000000000000000000000000000000000000000000000000008152506040518060400160405280600881526020017f4f70657261487562000000000000000000000000000000000000000000000000815250816000908051906020019062000096929190620000b8565b508060019080519060200190620000af929190620000b8565b505050620001cd565b828054620000c69062000168565b90600052602060002090601f016020900481019282620000ea576000855562000136565b82601f106200010557805160ff191683800117855562000136565b8280016001018555821562000136579182015b828111156200013557825182559160200191906001019062000118565b5b50905062000145919062000149565b5090565b5b80821115620001645760008160009055506001016200014a565b5090565b600060028204905060018216806200018157607f821691505b602082108114156200019857620001976200019e565b5b50919050565b7f4e487b7100000000000000000000000000000000000000000000000000000000600052602260045260246000fd5b61311780620001dd6000396000f3fe6080604052600436106101355760003560e01c806395d89b41116100ab578063c87b56dd1161006f578063c87b56dd14610446578063d85d3d2714610483578063d96a094a146104ac578063e048349b146104c8578063e985e9c514610505578063f9f16ef21461054257610135565b806395d89b41146103635780639dd130f51461038e578063a22cb465146103cb578063b3de019c146103f4578063b88d4fde1461041d57610135565b806317fcfe22116100fd57806317fcfe221461023157806323b872dd1461025a57806342842e0e146102835780636352211e146102ac57806370a08231146102e957806377a993441461032657610135565b806301ffc9a71461013a57806306fdde0314610177578063081812fc146101a2578063095ea7b3146101df5780631361a3b614610208575b600080fd5b34801561014657600080fd5b50610161600480360381019061015c9190612143565b61056d565b60405161016e9190612a0f565b60405180910390f35b34801561018357600080fd5b5061018c61064f565b6040516101999190612a2a565b60405180910390f35b3480156101ae57600080fd5b506101c960048036038101906101c491906121d6565b6106e1565b6040516101d691906129a8565b60405180910390f35b3480156101eb57600080fd5b5061020660048036038101906102019190612107565b610766565b005b34801561021457600080fd5b5061022f600480360381019061022a91906121d6565b61087e565b005b34801561023d57600080fd5b50610258600480360381019061025391906121ff565b610910565b005b34801561026657600080fd5b50610281600480360381019061027c9190612001565b610992565b005b34801561028f57600080fd5b506102aa60048036038101906102a59190612001565b6109f2565b005b3480156102b857600080fd5b506102d360048036038101906102ce91906121d6565b610a12565b6040516102e091906129a8565b60405180910390f35b3480156102f557600080fd5b50610310600480360381019061030b9190611f9c565b610ac4565b60405161031d9190612cac565b60405180910390f35b34801561033257600080fd5b5061034d60048036038101906103489190612195565b610b7c565b60405161035a9190612cac565b60405180910390f35b34801561036f57600080fd5b50610378610ba4565b6040516103859190612a2a565b60405180910390f35b34801561039a57600080fd5b506103b560048036038101906103b091906121d6565b610c36565b6040516103c29190612cac565b60405180910390f35b3480156103d757600080fd5b506103f260048036038101906103ed91906120cb565b610c53565b005b34801561040057600080fd5b5061041b600480360381019061041691906121ff565b610dd4565b005b34801561042957600080fd5b50610444600480360381019061043f9190612050565b610ebc565b005b34801561045257600080fd5b5061046d600480360381019061046891906121d6565b610f1e565b60405161047a9190612a2a565b60405180910390f35b34801561048f57600080fd5b506104aa60048036038101906104a59190612195565b610fc5565b005b6104c660048036038101906104c191906121d6565b611097565b005b3480156104d457600080fd5b506104ef60048036038101906104ea91906121d6565b6111e4565b6040516104fc9190612a2a565b60405180910390f35b34801561051157600080fd5b5061052c60048036038101906105279190611fc5565b611289565b6040516105399190612a0f565b60405180910390f35b34801561054e57600080fd5b5061055761131d565b6040516105649190612cac565b60405180910390f35b60007f80ac58cd000000000000000000000000000000000000000000000000000000007bffffffffffffffffffffffffffffffffffffffffffffffffffffffff1916827bffffffffffffffffffffffffffffffffffffffffffffffffffffffff1916148061063857507f5b5e139f000000000000000000000000000000000000000000000000000000007bffffffffffffffffffffffffffffffffffffffffffffffffffffffff1916827bffffffffffffffffffffffffffffffffffffffffffffffffffffffff1916145b8061064857506106478261132e565b5b9050919050565b60606000805461065e90612f0c565b80601f016020809104026020016040519081016040528092919081815260200182805461068a90612f0c565b80156106d75780601f106106ac576101008083540402835291602001916106d7565b820191906000526020600020905b8154815290600101906020018083116106ba57829003601f168201915b5050505050905090565b60006106ec82611398565b61072b576040517f08c379a000000000000000000000000000000000000000000000000000000000815260040161072290612bac565b60405180910390fd5b6004600083815260200190815260200160002060009054906101000a900473ffffffffffffffffffffffffffffffffffffffff169050919050565b600061077182610a12565b90508073ffffffffffffffffffffffffffffffffffffffff168373ffffffffffffffffffffffffffffffffffffffff1614156107e2576040517f08c379a00000000000000000000000000000000000000000000000000000000081526004016107d990612c0c565b60405180910390fd5b8073ffffffffffffffffffffffffffffffffffffffff16610801611404565b73ffffffffffffffffffffffffffffffffffffffff161480610830575061082f8161082a611404565b611289565b5b61086f576040517f08c379a000000000000000000000000000000000000000000000000000000000815260040161086690612b2c565b60405180910390fd5b610879838361140c565b505050565b61088781610a12565b73ffffffffffffffffffffffffffffffffffffffff163373ffffffffffffffffffffffffffffffffffffffff16146108f4576040517f08c379a00000000000000000000000000000000000000000000000000000000081526004016108eb90612c6c565b60405180910390fd5b6000600960008381526020019081526020016000208190555050565b600061091b83610a12565b9050600060096000858152602001908152602001600020541461093d57600080fd5b3373ffffffffffffffffffffffffffffffffffffffff168173ffffffffffffffffffffffffffffffffffffffff161461097557600080fd5b816009600085815260200190815260200160002081905550505050565b6109a361099d611404565b826114c5565b6109e2576040517f08c379a00000000000000000000000000000000000000000000000000000000081526004016109d990612c2c565b60405180910390fd5b6109ed8383836115a3565b505050565b610a0d83838360405180602001604052806000815250610ebc565b505050565b6000806002600084815260200190815260200160002060009054906101000a900473ffffffffffffffffffffffffffffffffffffffff169050600073ffffffffffffffffffffffffffffffffffffffff168173ffffffffffffffffffffffffffffffffffffffff161415610abb576040517f08c379a0000000000000000000000000000000000000000000000000000000008152600401610ab290612b6c565b60405180910390fd5b80915050919050565b60008073ffffffffffffffffffffffffffffffffffffffff168273ffffffffffffffffffffffffffffffffffffffff161415610b35576040517f08c379a0000000000000000000000000000000000000000000000000000000008152600401610b2c90612b4c565b60405180910390fd5b600360008373ffffffffffffffffffffffffffffffffffffffff1673ffffffffffffffffffffffffffffffffffffffff168152602001908152602001600020549050919050565b6000600882604051610b8e919061296d565b9081526020016040518091039020549050919050565b606060018054610bb390612f0c565b80601f0160208091040260200160405190810160405280929190818152602001828054610bdf90612f0c565b8015610c2c5780601f10610c0157610100808354040283529160200191610c2c565b820191906000526020600020905b815481529060010190602001808311610c0f57829003601f168201915b5050505050905090565b600060096000838152602001908152602001600020549050919050565b610c5b611404565b73ffffffffffffffffffffffffffffffffffffffff168273ffffffffffffffffffffffffffffffffffffffff161415610cc9576040517f08c379a0000000000000000000000000000000000000000000000000000000008152600401610cc090612aec565b60405180910390fd5b8060056000610cd6611404565b73ffffffffffffffffffffffffffffffffffffffff1673ffffffffffffffffffffffffffffffffffffffff16815260200190815260200160002060008473ffffffffffffffffffffffffffffffffffffffff1673ffffffffffffffffffffffffffffffffffffffff16815260200190815260200160002060006101000a81548160ff0219169083151502179055508173ffffffffffffffffffffffffffffffffffffffff16610d83611404565b73ffffffffffffffffffffffffffffffffffffffff167f17307eab39ab6107e8899845ad3d59bd9653f200f220920489ca2b5937696c3183604051610dc89190612a0f565b60405180910390a35050565b6000600960008481526020019081526020016000205411610e2a576040517f08c379a0000000000000000000000000000000000000000000000000000000008152600401610e2190612a4c565b60405180910390fd5b610e3382610a12565b73ffffffffffffffffffffffffffffffffffffffff163373ffffffffffffffffffffffffffffffffffffffff1614610ea0576040517f08c379a0000000000000000000000000000000000000000000000000000000008152600401610e9790612c6c565b60405180910390fd5b8060096000848152602001908152602001600020819055505050565b610ecd610ec7611404565b836114c5565b610f0c576040517f08c379a0000000000000000000000000000000000000000000000000000000008152600401610f0390612c2c565b60405180910390fd5b610f18848484846117ff565b50505050565b6060610f2982611398565b610f68576040517f08c379a0000000000000000000000000000000000000000000000000000000008152600401610f5f90612bec565b60405180910390fd5b6000610f7261185b565b90506000815111610f925760405180602001604052806000815250610fbd565b80610f9c84611872565b604051602001610fad929190612984565b6040516020818303038152906040525b915050919050565b610fcf6006611a1f565b6000610fdb6006611a35565b90506000600883604051610fef919061296d565b9081526020016040518091039020541461103e576040517f08c379a000000000000000000000000000000000000000000000000000000000815260040161103590612aac565b60405180910390fd5b6110483382611a43565b8160076000838152602001908152602001600020908051906020019061106f929190611dc0565b5080600883604051611081919061296d565b9081526020016040518091039020819055505050565b6000339050600034905060006110ac84610a12565b905060008190506000600960008781526020019081526020016000205411611109576040517f08c379a000000000000000000000000000000000000000000000000000000000815260040161110090612c4c565b60405180910390fd5b600960008681526020019081526020016000205483101561115f576040517f08c379a000000000000000000000000000000000000000000000000000000000815260040161115690612c8c565b60405180910390fd5b8073ffffffffffffffffffffffffffffffffffffffff166108fc60096000888152602001908152602001600020549081150290604051600060405180830381858888f193505050501580156111b8573d6000803e3d6000fd5b506111c48185876115a3565b600060096000878152602001908152602001600020819055505050505050565b606060076000838152602001908152602001600020805461120490612f0c565b80601f016020809104026020016040519081016040528092919081815260200182805461123090612f0c565b801561127d5780601f106112525761010080835404028352916020019161127d565b820191906000526020600020905b81548152906001019060200180831161126057829003601f168201915b50505050509050919050565b6000600560008473ffffffffffffffffffffffffffffffffffffffff1673ffffffffffffffffffffffffffffffffffffffff16815260200190815260200160002060008373ffffffffffffffffffffffffffffffffffffffff1673ffffffffffffffffffffffffffffffffffffffff16815260200190815260200160002060009054906101000a900460ff16905092915050565b60006113296006611a35565b905090565b60007f01ffc9a7000000000000000000000000000000000000000000000000000000007bffffffffffffffffffffffffffffffffffffffffffffffffffffffff1916827bffffffffffffffffffffffffffffffffffffffffffffffffffffffff1916149050919050565b60008073ffffffffffffffffffffffffffffffffffffffff166002600084815260200190815260200160002060009054906101000a900473ffffffffffffffffffffffffffffffffffffffff1673ffffffffffffffffffffffffffffffffffffffff1614159050919050565b600033905090565b816004600083815260200190815260200160002060006101000a81548173ffffffffffffffffffffffffffffffffffffffff021916908373ffffffffffffffffffffffffffffffffffffffff160217905550808273ffffffffffffffffffffffffffffffffffffffff1661147f83610a12565b73ffffffffffffffffffffffffffffffffffffffff167f8c5be1e5ebec7d5bd14f71427d1e84f3dd0314c0f7b2291e5b200ac8c7c3b92560405160405180910390a45050565b60006114d082611398565b61150f576040517f08c379a000000000000000000000000000000000000000000000000000000000815260040161150690612b0c565b60405180910390fd5b600061151a83610a12565b90508073ffffffffffffffffffffffffffffffffffffffff168473ffffffffffffffffffffffffffffffffffffffff16148061158957508373ffffffffffffffffffffffffffffffffffffffff16611571846106e1565b73ffffffffffffffffffffffffffffffffffffffff16145b8061159a57506115998185611289565b5b91505092915050565b8273ffffffffffffffffffffffffffffffffffffffff166115c382610a12565b73ffffffffffffffffffffffffffffffffffffffff1614611619576040517f08c379a000000000000000000000000000000000000000000000000000000000815260040161161090612bcc565b60405180910390fd5b600073ffffffffffffffffffffffffffffffffffffffff168273ffffffffffffffffffffffffffffffffffffffff161415611689576040517f08c379a000000000000000000000000000000000000000000000000000000000815260040161168090612acc565b60405180910390fd5b611694838383611c11565b61169f60008261140c565b6001600360008573ffffffffffffffffffffffffffffffffffffffff1673ffffffffffffffffffffffffffffffffffffffff16815260200190815260200160002060008282546116ef9190612e22565b925050819055506001600360008473ffffffffffffffffffffffffffffffffffffffff1673ffffffffffffffffffffffffffffffffffffffff16815260200190815260200160002060008282546117469190612d9b565b92505081905550816002600083815260200190815260200160002060006101000a81548173ffffffffffffffffffffffffffffffffffffffff021916908373ffffffffffffffffffffffffffffffffffffffff160217905550808273ffffffffffffffffffffffffffffffffffffffff168473ffffffffffffffffffffffffffffffffffffffff167fddf252ad1be2c89b69c2b068fc378daa952ba7f163c4a11628f55a4df523b3ef60405160405180910390a4505050565b61180a8484846115a3565b61181684848484611c16565b611855576040517f08c379a000000000000000000000000000000000000000000000000000000000815260040161184c90612a6c565b60405180910390fd5b50505050565b606060405180602001604052806000815250905090565b606060008214156118ba576040518060400160405280600181526020017f30000000000000000000000000000000000000000000000000000000000000008152509050611a1a565b600082905060005b600082146118ec5780806118d590612f3e565b915050600a826118e59190612df1565b91506118c2565b60008167ffffffffffffffff81111561192e577f4e487b7100000000000000000000000000000000000000000000000000000000600052604160045260246000fd5b6040519080825280601f01601f1916602001820160405280156119605781602001600182028036833780820191505090505b5090505b60008514611a13576001826119799190612e22565b9150600a856119889190612f87565b60306119949190612d9b565b60f81b8183815181106119d0577f4e487b7100000000000000000000000000000000000000000000000000000000600052603260045260246000fd5b60200101907effffffffffffffffffffffffffffffffffffffffffffffffffffffffffffff1916908160001a905350600a85611a0c9190612df1565b9450611964565b8093505050505b919050565b6001816000016000828254019250508190555050565b600081600001549050919050565b600073ffffffffffffffffffffffffffffffffffffffff168273ffffffffffffffffffffffffffffffffffffffff161415611ab3576040517f08c379a0000000000000000000000000000000000000000000000000000000008152600401611aaa90612b8c565b60405180910390fd5b611abc81611398565b15611afc576040517f08c379a0000000000000000000000000000000000000000000000000000000008152600401611af390612a8c565b60405180910390fd5b611b0860008383611c11565b6001600360008473ffffffffffffffffffffffffffffffffffffffff1673ffffffffffffffffffffffffffffffffffffffff1681526020019081526020016000206000828254611b589190612d9b565b92505081905550816002600083815260200190815260200160002060006101000a81548173ffffffffffffffffffffffffffffffffffffffff021916908373ffffffffffffffffffffffffffffffffffffffff160217905550808273ffffffffffffffffffffffffffffffffffffffff16600073ffffffffffffffffffffffffffffffffffffffff167fddf252ad1be2c89b69c2b068fc378daa952ba7f163c4a11628f55a4df523b3ef60405160405180910390a45050565b505050565b6000611c378473ffffffffffffffffffffffffffffffffffffffff16611dad565b15611da0578373ffffffffffffffffffffffffffffffffffffffff1663150b7a02611c60611404565b8786866040518563ffffffff1660e01b8152600401611c8294939291906129c3565b602060405180830381600087803b158015611c9c57600080fd5b505af1925050508015611ccd57506040513d601f19601f82011682018060405250810190611cca919061216c565b60015b611d50573d8060008114611cfd576040519150601f19603f3d011682016040523d82523d6000602084013e611d02565b606091505b50600081511415611d48576040517f08c379a0000000000000000000000000000000000000000000000000000000008152600401611d3f90612a6c565b60405180910390fd5b805181602001fd5b63150b7a0260e01b7bffffffffffffffffffffffffffffffffffffffffffffffffffffffff1916817bffffffffffffffffffffffffffffffffffffffffffffffffffffffff191614915050611da5565b600190505b949350505050565b600080823b905060008111915050919050565b828054611dcc90612f0c565b90600052602060002090601f016020900481019282611dee5760008555611e35565b82601f10611e0757805160ff1916838001178555611e35565b82800160010185558215611e35579182015b82811115611e34578251825591602001919060010190611e19565b5b509050611e429190611e46565b5090565b5b80821115611e5f576000816000905550600101611e47565b5090565b6000611e76611e7184612cf8565b612cc7565b905082815260208101848484011115611e8e57600080fd5b611e99848285612eca565b509392505050565b6000611eb4611eaf84612d28565b612cc7565b905082815260208101848484011115611ecc57600080fd5b611ed7848285612eca565b509392505050565b600081359050611eee81613085565b92915050565b600081359050611f038161309c565b92915050565b600081359050611f18816130b3565b92915050565b600081519050611f2d816130b3565b92915050565b600082601f830112611f4457600080fd5b8135611f54848260208601611e63565b91505092915050565b600082601f830112611f6e57600080fd5b8135611f7e848260208601611ea1565b91505092915050565b600081359050611f96816130ca565b92915050565b600060208284031215611fae57600080fd5b6000611fbc84828501611edf565b91505092915050565b60008060408385031215611fd857600080fd5b6000611fe685828601611edf565b9250506020611ff785828601611edf565b9150509250929050565b60008060006060848603121561201657600080fd5b600061202486828701611edf565b935050602061203586828701611edf565b925050604061204686828701611f87565b9150509250925092565b6000806000806080858703121561206657600080fd5b600061207487828801611edf565b945050602061208587828801611edf565b935050604061209687828801611f87565b925050606085013567ffffffffffffffff8111156120b357600080fd5b6120bf87828801611f33565b91505092959194509250565b600080604083850312156120de57600080fd5b60006120ec85828601611edf565b92505060206120fd85828601611ef4565b9150509250929050565b6000806040838503121561211a57600080fd5b600061212885828601611edf565b925050602061213985828601611f87565b9150509250929050565b60006020828403121561215557600080fd5b600061216384828501611f09565b91505092915050565b60006020828403121561217e57600080fd5b600061218c84828501611f1e565b91505092915050565b6000602082840312156121a757600080fd5b600082013567ffffffffffffffff8111156121c157600080fd5b6121cd84828501611f5d565b91505092915050565b6000602082840312156121e857600080fd5b60006121f684828501611f87565b91505092915050565b6000806040838503121561221257600080fd5b600061222085828601611f87565b925050602061223185828601611f87565b9150509250929050565b61224481612e56565b82525050565b61225381612e68565b82525050565b600061226482612d58565b61226e8185612d6e565b935061227e818560208601612ed9565b61228781613074565b840191505092915050565b600061229d82612d63565b6122a78185612d7f565b93506122b7818560208601612ed9565b6122c081613074565b840191505092915050565b60006122d682612d63565b6122e08185612d90565b93506122f0818560208601612ed9565b80840191505092915050565b6000612309601583612d7f565b91507f43414c4c20464952535420534554464f5253414c4500000000000000000000006000830152602082019050919050565b6000612349603283612d7f565b91507f4552433732313a207472616e7366657220746f206e6f6e20455243373231526560008301527f63656976657220696d706c656d656e74657200000000000000000000000000006020830152604082019050919050565b60006123af601c83612d7f565b91507f4552433732313a20746f6b656e20616c7265616479206d696e746564000000006000830152602082019050919050565b60006123ef601283612d7f565b91507f6861736820676961206573697374656e746500000000000000000000000000006000830152602082019050919050565b600061242f602483612d7f565b91507f4552433732313a207472616e7366657220746f20746865207a65726f2061646460008301527f72657373000000000000000000000000000000000000000000000000000000006020830152604082019050919050565b6000612495601983612d7f565b91507f4552433732313a20617070726f766520746f2063616c6c6572000000000000006000830152602082019050919050565b60006124d5602c83612d7f565b91507f4552433732313a206f70657261746f7220717565727920666f72206e6f6e657860008301527f697374656e7420746f6b656e00000000000000000000000000000000000000006020830152604082019050919050565b600061253b603883612d7f565b91507f4552433732313a20617070726f76652063616c6c6572206973206e6f74206f7760008301527f6e6572206e6f7220617070726f76656420666f7220616c6c00000000000000006020830152604082019050919050565b60006125a1602a83612d7f565b91507f4552433732313a2062616c616e636520717565727920666f7220746865207a6560008301527f726f2061646472657373000000000000000000000000000000000000000000006020830152604082019050919050565b6000612607602983612d7f565b91507f4552433732313a206f776e657220717565727920666f72206e6f6e657869737460008301527f656e7420746f6b656e00000000000000000000000000000000000000000000006020830152604082019050919050565b600061266d602083612d7f565b91507f4552433732313a206d696e7420746f20746865207a65726f20616464726573736000830152602082019050919050565b60006126ad602c83612d7f565b91507f4552433732313a20617070726f76656420717565727920666f72206e6f6e657860008301527f697374656e7420746f6b656e00000000000000000000000000000000000000006020830152604082019050919050565b6000612713602983612d7f565b91507f4552433732313a207472616e73666572206f6620746f6b656e2074686174206960008301527f73206e6f74206f776e00000000000000000000000000000000000000000000006020830152604082019050919050565b6000612779602f83612d7f565b91507f4552433732314d657461646174613a2055524920717565727920666f72206e6f60008301527f6e6578697374656e7420746f6b656e00000000000000000000000000000000006020830152604082019050919050565b60006127df602183612d7f565b91507f4552433732313a20617070726f76616c20746f2063757272656e74206f776e6560008301527f72000000000000000000000000000000000000000000000000000000000000006020830152604082019050919050565b6000612845603183612d7f565b91507f4552433732313a207472616e736665722063616c6c6572206973206e6f74206f60008301527f776e6572206e6f7220617070726f7665640000000000000000000000000000006020830152604082019050919050565b60006128ab601583612d7f565b91507f4f50455241204e4f4e20494e2056454e444954412e00000000000000000000006000830152602082019050919050565b60006128eb600d83612d7f565b91507f4e4f5420544845204f574e4552000000000000000000000000000000000000006000830152602082019050919050565b600061292b602083612d7f565b91507f4e4f4e20484149204920534f5244492c20534549204e20504f52414343494f2e6000830152602082019050919050565b61296781612ec0565b82525050565b600061297982846122cb565b915081905092915050565b600061299082856122cb565b915061299c82846122cb565b91508190509392505050565b60006020820190506129bd600083018461223b565b92915050565b60006080820190506129d8600083018761223b565b6129e5602083018661223b565b6129f2604083018561295e565b8181036060830152612a048184612259565b905095945050505050565b6000602082019050612a24600083018461224a565b92915050565b60006020820190508181036000830152612a448184612292565b905092915050565b60006020820190508181036000830152612a65816122fc565b9050919050565b60006020820190508181036000830152612a858161233c565b9050919050565b60006020820190508181036000830152612aa5816123a2565b9050919050565b60006020820190508181036000830152612ac5816123e2565b9050919050565b60006020820190508181036000830152612ae581612422565b9050919050565b60006020820190508181036000830152612b0581612488565b9050919050565b60006020820190508181036000830152612b25816124c8565b9050919050565b60006020820190508181036000830152612b458161252e565b9050919050565b60006020820190508181036000830152612b6581612594565b9050919050565b60006020820190508181036000830152612b85816125fa565b9050919050565b60006020820190508181036000830152612ba581612660565b9050919050565b60006020820190508181036000830152612bc5816126a0565b9050919050565b60006020820190508181036000830152612be581612706565b9050919050565b60006020820190508181036000830152612c058161276c565b9050919050565b60006020820190508181036000830152612c25816127d2565b9050919050565b60006020820190508181036000830152612c4581612838565b9050919050565b60006020820190508181036000830152612c658161289e565b9050919050565b60006020820190508181036000830152612c85816128de565b9050919050565b60006020820190508181036000830152612ca58161291e565b9050919050565b6000602082019050612cc1600083018461295e565b92915050565b6000604051905081810181811067ffffffffffffffff82111715612cee57612ced613045565b5b8060405250919050565b600067ffffffffffffffff821115612d1357612d12613045565b5b601f19601f8301169050602081019050919050565b600067ffffffffffffffff821115612d4357612d42613045565b5b601f19601f8301169050602081019050919050565b600081519050919050565b600081519050919050565b600082825260208201905092915050565b600082825260208201905092915050565b600081905092915050565b6000612da682612ec0565b9150612db183612ec0565b9250827fffffffffffffffffffffffffffffffffffffffffffffffffffffffffffffffff03821115612de657612de5612fb8565b5b828201905092915050565b6000612dfc82612ec0565b9150612e0783612ec0565b925082612e1757612e16612fe7565b5b828204905092915050565b6000612e2d82612ec0565b9150612e3883612ec0565b925082821015612e4b57612e4a612fb8565b5b828203905092915050565b6000612e6182612ea0565b9050919050565b60008115159050919050565b60007fffffffff0000000000000000000000000000000000000000000000000000000082169050919050565b600073ffffffffffffffffffffffffffffffffffffffff82169050919050565b6000819050919050565b82818337600083830152505050565b60005b83811015612ef7578082015181840152602081019050612edc565b83811115612f06576000848401525b50505050565b60006002820490506001821680612f2457607f821691505b60208210811415612f3857612f37613016565b5b50919050565b6000612f4982612ec0565b91507fffffffffffffffffffffffffffffffffffffffffffffffffffffffffffffffff821415612f7c57612f7b612fb8565b5b600182019050919050565b6000612f9282612ec0565b9150612f9d83612ec0565b925082612fad57612fac612fe7565b5b828206905092915050565b7f4e487b7100000000000000000000000000000000000000000000000000000000600052601160045260246000fd5b7f4e487b7100000000000000000000000000000000000000000000000000000000600052601260045260246000fd5b7f4e487b7100000000000000000000000000000000000000000000000000000000600052602260045260246000fd5b7f4e487b7100000000000000000000000000000000000000000000000000000000600052604160045260246000fd5b6000601f19601f8301169050919050565b61308e81612e56565b811461309957600080fd5b50565b6130a581612e68565b81146130b057600080fd5b50565b6130bc81612e74565b81146130c757600080fd5b50565b6130d381612ec0565b81146130de57600080fd5b5056fea264697066735822122000f913903ebd77f3c87d6533185d83b537ab5e55a8733273df822a352696088764736f6c63430008000033",
  "immutableReferences": {},
  "source": "pragma solidity ^0.8.0;\n\n\nimport \"@openzeppelin/contracts/token/ERC721/ERC721.sol\";\nimport \"@openzeppelin/contracts/utils/Counters.sol\";\n\ncontract NTF is ERC721{\n    using Counters for Counters.Counter;\n    //Contatore utilizzato per rappresentare i token\n    Counters.Counter private _tokenIds;\n\n    // mapping tra un tokenId e il suo hash(e viceversa)\n    mapping (uint256 =>  string) idToHash;\n    mapping (string =>  uint256) hashToId;\n    // associa un prezzo in Wei ad ogni token\n    //ogni token inizialmente ha valore 0 -> non  in vendita\n    mapping (uint256 => uint256) prezzo;\n\n    //costruttore con due parametri:\n    //\"opera\"  il nome di un singolo token\n    //\"OperaHub\"  il nome che rappresenta l'insieme dei token del contratto\n    constructor() ERC721(\"opera\",\"OperaHub\") public{}\n\n\n\n//numero di token\nfunction numberOfTokens()  view public returns (uint256){\n    return _tokenIds.current();\n}\n\n//GETTER:\n//del prezzo di un token\nfunction getPrezzo(uint256 _tokenId) view public returns (uint256){\n    return prezzo[_tokenId];\n}\n\n\nfunction getIdfromHash(string memory hashh)view external returns(  uint256){\n    return hashToId[hashh];\n}\n\nfunction getHashfromId(uint256 id)view external returns( string memory){\n    return idToHash[id];\n}\n\n\n\nfunction changePrice(uint256 idtoken,uint256 costo) external {\n    require(prezzo[idtoken]>0,\"CALL FIRST SETFORSALE\");\n    require(msg.sender == ownerOf(idtoken),\"NOT THE OWNER\");\n    prezzo[idtoken]=costo;\n\n}\n\nfunction removeFromSale(uint256 idtoken) external{\n    require(msg.sender == ownerOf(idtoken),\"NOT THE OWNER\");\n    prezzo[idtoken]=0;\n}\n\n// funzione che prende in input token e il suo costo in Wei e lo mette in vendita\nfunction setForSale(uint256 _tokenId,uint256 costo) external{\n    address owner = ownerOf(_tokenId);\n    //il prezzo del token non deve essere 0(mai stato settato) e il sender deve\n    //essere il proprietario del token\n    require(prezzo[_tokenId]==0);\n    require(owner == msg.sender);\n    prezzo[_tokenId]=costo;\n    //esegue l'approval della chiave del contratto, permettendo a quest ultimo\n    //di accedere ai token ed effettuare modifiche\n    }\n\n\n//Funzione che effettua lo scambio tra il token e il prezzo in Wei\nfunction buy(uint256 _tokenId) external  payable {\n    address buyer = msg.sender;\n    uint256 payedPrice = msg.value;\n    //proprietario del token\n    address ownerA =ownerOf(_tokenId);\n    //payable permette all'owner del token di ricevere i token dal buyer\n    address payable owner= payable(ownerA);\n    require(prezzo[_tokenId]>0,\"OPERA NON IN VENDITA.\");\n    require(payedPrice >= prezzo[_tokenId],\"NON HAI I SORDI, SEI N PORACCIO.\");\n    //effettua la transazione in Wei\n    owner.transfer(prezzo[_tokenId]);\n    //cambia il proprietario del token\n    _transfer(owner,buyer,_tokenId);\n    //venduto il token, viene rimosso dagli oggetti in vendita\n    prezzo[_tokenId]=0;\n}\n\n\n\n\n\n//funzione per la creazione di un nuovo token, associando il proprietario\n//alla chiave pubblica del chiamante della funzione\nfunction mint(string memory hashh) public{\n    _tokenIds.increment();\n    //crea l'id per il nuovo token\n    uint256 newItemId = _tokenIds.current();\n\n\n//controllo hash duplicati\n    //require(compare(idToHash[newItemId],\"\"),\"hash gia esistente\");\n    require(hashToId[hashh]==0,\"hash gia esistente\");\n\n//funzione che crea il nuovo token\n    _mint(msg.sender, newItemId);\n    idToHash[newItemId]=hashh;\n    hashToId[hashh]=newItemId;\n}\n\n\n\n\n\n\n\n//funzione che confronta due stringhe(solidity non ce l'ha)\n      function compare(string memory _s1, string memory _s2)\n            pure\n            internal\n            returns(bool) {\n              bytes memory b1 = bytes(_s1);\n              bytes memory b2 = bytes(_s2);\n              if (b1.length != b2.length) {\n                return false;\n              }\n              return keccak256(b1) == keccak256(b2);\n  }\n\n\n\n\n\n\n}\n",
  "sourcePath": "/home/naddi/Scrivania/blockchain/Progetto-SCRS/esercizio ntf/contracts/NTF.sol",
  "compiler": {
    "name": "solc",
    "version": "0.8.0+commit.c7dfd78e.Emscripten.clang"
  },
  "schemaVersion": "3.3.4",
  "updatedAt": "2021-04-09T15:13:24.773Z",
  "networkType": "ethereum",
  "devdoc": {
    "kind": "dev",
    "methods": {
      "approve(address,uint256)": {
        "details": "See {IERC721-approve}."
      },
      "balanceOf(address)": {
        "details": "See {IERC721-balanceOf}."
      },
      "getApproved(uint256)": {
        "details": "See {IERC721-getApproved}."
      },
      "isApprovedForAll(address,address)": {
        "details": "See {IERC721-isApprovedForAll}."
      },
      "name()": {
        "details": "See {IERC721Metadata-name}."
      },
      "ownerOf(uint256)": {
        "details": "See {IERC721-ownerOf}."
      },
      "safeTransferFrom(address,address,uint256)": {
        "details": "See {IERC721-safeTransferFrom}."
      },
      "safeTransferFrom(address,address,uint256,bytes)": {
        "details": "See {IERC721-safeTransferFrom}."
      },
      "setApprovalForAll(address,bool)": {
        "details": "See {IERC721-setApprovalForAll}."
      },
      "supportsInterface(bytes4)": {
        "details": "See {IERC165-supportsInterface}."
      },
      "symbol()": {
        "details": "See {IERC721Metadata-symbol}."
      },
      "tokenURI(uint256)": {
        "details": "See {IERC721Metadata-tokenURI}."
      },
      "transferFrom(address,address,uint256)": {
        "details": "See {IERC721-transferFrom}."
      }
    },
    "version": 1
  },
  "userdoc": {
    "kind": "user",
    "methods": {},
    "version": 1
  }
}